:020000040000fa
:080000000001040000000000f3
:020000040000fa
:0400080014020000de
:020000040000fa
:04000c0026020000c8
:020000040000fa
:0400100036020000b4
:020000040000fa
:040014001c020000ca
:020000040000fa
:040018002e020000b4
:020000040000fa
:04001c00840200005a
:020000040000fa
:040020008402000056
:020000040000fa
:040024008402000052
:020000040000fa
:04002800840200004e
:020000040000fa
:04002c00840200004a
:020000040000fa
:040030008402000046
:020000040000fa
:040034005202000074
:020000040000fa
:04003800840200003e
:020000040000fa
:04003c00840200003a
:020000040000fa
:040040008402000036
:020000040000fa
:040044008402000032
:020000040000fa
:04004800840200002e
:020000040000fa
:04004c00840200002a
:020000040000fa
:040050008402000026
:020000040000fa
:040054008402000022
:020000040000fa
:04005800840200001e
:020000040000fa
:04005c00840200001a
:020000040000fa
:040060008402000016
:020000040000fa
:040064008402000012
:020000040000fa
:04006800840200000e
:020000040000fa
:04006c00840200000a
:020000040000fa
:040070008402000006
:020000040000fa
:040074003e02000048
:020000040000fa
:0400780084020000fe
:020000040000fa
:04007c0084020000fa
:020000040000fa
:0400800084020000f6
:020000040000fa
:0400840084020000f2
:020000040000fa
:0400880084020000ee
:020000040000fa
:04008c0084020000ea
:020000040000fa
:0400900084020000e6
:020000040000fa
:0400940084020000e2
:020000040000fa
:0400980084020000de
:020000040000fa
:04009c0084020000da
:020000040000fa
:0400a00084020000d6
:020000040000fa
:0400a40084020000d2
:020000040000fa
:0400a80084020000ce
:020000040000fa
:0400ac0084020000ca
:020000040000fa
:0400b00084020000c6
:020000040000fa
:0400b40084020000c2
:020000040000fa
:0400b80084020000be
:020000040000fa
:0400bc0084020000ba
:020000040000fa
:0400c00084020000b6
:020000040000fa
:0400c40084020000b2
:020000040000fa
:0400c80084020000ae
:020000040000fa
:0400cc0084020000aa
:020000040000fa
:0400d00084020000a6
:020000040000fa
:0400d40084020000a2
:020000040000fa
:0400d800840200009e
:020000040000fa
:0400dc00840200009a
:020000040000fa
:0400e0008402000096
:020000040000fa
:0400e4008402000092
:020000040000fa
:0400e800840200008e
:020000040000fa
:0400ec00840200008a
:020000040000fa
:0400f0008402000086
:020000040000fa
:0400f4008402000082
:020000040000fa
:0400f800840200007e
:020000040000fa
:0400fc00840200007a
:020000040000fa
:040100008402000075
:020000040000fa
:040104008402000071
:020000040000fa
:04010800840200006d
:020000040000fa
:04010c008402000069
:020000040000fa
:040110008402000065
:020000040000fa
:040114008402000061
:020000040000fa
:04011800840200005d
:020000040000fa
:04011c008402000059
:020000040000fa
:040120008402000055
:020000040000fa
:040124008402000051
:020000040000fa
:04012800840200004d
:020000040000fa
:04012c008402000049
:020000040000fa
:040130008402000045
:020000040000fa
:040134008402000041
:020000040000fa
:04013800840200003d
:020000040000fa
:04013c008402000039
:020000040000fa
:040140008402000035
:020000040000fa
:040144008402000031
:020000040000fa
:04014800840200002d
:020000040000fa
:04014c008402000029
:020000040000fa
:040150008402000025
:020000040000fa
:040154008402000021
:020000040000fa
:04015800840200001d
:020000040000fa
:04015c008402000019
:020000040000fa
:040160008402000015
:020000040000fa
:040164008402000011
:020000040000fa
:04016800840200000d
:020000040000fa
:04016c008402000009
:020000040000fa
:040170008402000005
:020000040000fa
:040174008402000001
:020000040000fa
:0401780084020000fd
:020000040000fa
:04017c0084020000f9
:020000040000fa
:0401800084020000f5
:020000040000fa
:0401840084020000f1
:020000040000fa
:0401880084020000ed
:020000040000fa
:04018c0084020000e9
:020000040000fa
:0401900084020000e5
:020000040000fa
:0401940084020000e1
:020000040000fa
:0401980084020000dd
:020000040000fa
:04019c0084020000d9
:020000040000fa
:0401a00084020000d5
:020000040000fa
:0401a40084020000d1
:020000040000fa
:0401a80084020000cd
:020000040000fa
:0401ac0084020000c9
:020000040000fa
:0401b00084020000c5
:020000040000fa
:0401b40084020000c1
:020000040000fa
:0401b80084020000bd
:020000040000fa
:0401bc0084020000b9
:020000040000fa
:0401c00084020000b5
:020000040000fa
:0401c40084020000b1
:020000040000fa
:0401c80084020000ad
:020000040000fa
:0401cc0084020000a9
:020000040000fa
:0401d00084020000a5
:020000040000fa
:0401d40084020000a1
:020000040000fa
:0401d800840200009d
:020000040000fa
:0401dc008402000099
:020000040000fa
:0401e0008402000095
:020000040000fa
:0401e4008402000091
:020000040000fa
:0401e800840200008d
:020000040000fa
:0401ec008402000089
:020000040000fa
:0401f0008402000085
:020000040000fa
:0401f4008402000081
:020000040000fa
:0401f800840200007d
:020000040000fa
:0401fc008402000079
:020000040000fa
:100200008f9220000eff27000e01880000000000e2
:10021000000020000000e000020032000001200089
:1002200020028800140007002e0107000000e000f3
:1002300003003a0040a42200010020000200370021
:100240000000200001002000810f7000010032003a
:1002500014000700000020000000e000020032004f
:1002600000000200000000008424020000000000e2
:100270000040da000000fe004440a90040082000d1
:100280000000e00003003200002020009001880000
:100290004440a800000006008a1f78008b1f7800e9
:1002a00000000600a1028800800478000000eb0036
:1002b0001f003700e284440054a0b4009905ba003e
:1002c000e284440054a0b4009906ba00e2844400d9
:1002d00054a0b4000006eb00476fde00fd07b2003b
:1002e000ae018800636ce10003003a00eaff0700fa
:1002f0000000eb000e003700606ce10008003a00df
:10030000004deb000a05e800020039003420ec0043
:100310000af0a0008b05e900f9ff3e000400370059
:100320006168e100010032000086eb000b0007006d
:1003300019c7ba001905ba000e04e00003003a001c
:100340000a00e000dbff3a0000000600fe07b200f2
:10035000ae0288008a047800f5ff37000cd0a300b5
:10036000e20f4d001c00390089027800354dba00bb
:100370000a05e800020039003420ec000af0a00071
:100380008b05e9000f003200254dba000a05e80090
:10039000020039003420ec000af0a0008b05e900cf
:1003a000080032000c00e0000600320015cdba0053
:1003b0000a05e800020039003420ec000af0a00031
:1003c0008b05e9008984e80054a0b4000b00e0002c
:1003d000e2ff3a00000006009902ba00055d7800cd
:1003e0008b05e900f7ff3200c82ade00055d7800c2
:1003f0008b05e900f3ff32000c00e000f1ff320052
:1004000019ddba00eeff37001c1f040000000000d9
:100410009e0e040000000000000004000000000028
:10042000fe0f0400000000003600f8008020a90044
:100430000000eb00c31507003600f800c5150700e3
:100440008040a90010002000be1507003600f8000b
:100450008060a90020002000ba1507003600f800cf
:100460008080a90030002000b61507003600f80093
:100470008600a90070002000b2150700801f7800d8
:100480000000fa0050048000680060000000e000f6
:10049000010032008a60a9000080fa004f00780055
:1004a000004006003600f800809fbe00829fbe001c
:1004b000849fbe00869fbe000000fa00e014070083
:1004c00010c0b3003de8b700f09120001040780064
:1004d0008040e800f091200001487800e091200081
:1004e00011c0b300014878008860a9000080fa00bc
:1004f0004f03be004f02be004f01be004f00be00c2
:100500003600f900004006000040da000000fe005e
:100510000a00fa0011002000b1bf9f00c0bf9f0079
:100520006a805700e10807004fb897000080fa0082
:10053000000006000a00fa00e20f500034003e00fe
:1005400020498000e10f500003003200e20f50000c
:1005500011003a000c003700833920000300e0004e
:1005600001003a000040da009803e2000200350082
:10057000a023ef0099e3a8009b43ab000d003a00d5
:100580009b43a8000b003700e33a20000300e00083
:1005900001003a000040da00ae03e200020035003c
:1005a000b623ef00afe3a800b143ab0001003a006f
:1005b000b143a800820178000b0037003102fb0034
:1005c000e10f500004003a009b23ab00feff3a000d
:1005d000e41c880003003700b123ab00feff3a00a3
:1005e000941d88008301e9000300e000f3ff3a0056
:1005f000e10f500003003a009b03ab00feff320006
:100600000b003700b103ab00feff320008003700db
:1006100033002000b3bf9f00c0bf9f00d1bf9f0029
:10062000e2bf9f006a805700a20807006fb99700d9
:10063000020078000080fa00000006000a00fa00bc
:1006400051002000b1bf9f00c0bf9f006a805700cb
:100650009a0807005fb897000080fa0000000600c3
:10066000889fbe0080047800304980000000e000d0
:1006700004003a000e0007000084eb000000e000d8
:1006800008003500384980000900e000050032000c
:1006900009004400060007000000e00001003d00e2
:1006a0000084eb00080078004f04be000000060044
:1006b000800078000100e00003003a000000200004
:1006c00030498800000005000080eb000200200097
:1006d000828f500002003e00314988000000eb008c
:1006e000000006000000050003f0a200889fbe0085
:1006f0008a9fbe008c1f7800d7000700de00330001
:100700006450e1004f0032006420e10052003200ea
:1007100003826c0007003b000905d0000306d000ef
:10072000820f54000c065d00020039000200320006
:1007300089017800030678008582550004003d0099
:100740000003fd008103fd008502ea008b85420065
:10075000840f720002003b0060001000e08018006f
:100760006011b8000005eb007a28e1000a003900aa
:1007700006007800c75ddd00f707b20087807500ce
:100780002d003700828171000a0178006105600048
:100790008180d1000080d3008502e900f9ff3b0091
:1007a000060440008784480002003b0060041400f7
:1007b000e0841c000988a300070032008a817100d0
:1007c00082817100610164008904d1000884d30032
:1007d0008b05e800170037000978a30013003a00e2
:1007e0000b00e000130034008b05e900080444000e
:1007f00089844c000a4474000978a3000d003a0073
:100800000b00e000070034008b05e90008044400f9
:1008100089844c0001003a000b0020000978a300f5
:10082000f7ff32000001eb00020037008281710007
:100830000a0178004d0007000cf0a70001f0a000ad
:10084000960037006420e10002003a00838f6c00bc
:10085000960033000801be000200be008f00370082
:100860000002eb00ca0037000001be00650007006f
:100870000470a70003f0a1006509b1001600320062
:100880000d0035006828e10006003500f0ff2f005c
:10089000f1ff27000300e00013003b0001002800e7
:1008a0000000050000004000818048008502e9004a
:1008b000fcff3a0008003700f88f420002003c00bd
:1008c0008000eb00000005008100d1000080d30013
:1008d0008502e800fcff3a000300e00002003b0054
:1008e00060001000e0801800000006000001be005b
:1008f000440007000470a70003f0a10003f8a30060
:1009000013003a006509b1001000320009003500fb
:100910006928e10002003500010028000000050000
:1009200000004000818048008502e900fcff3a0099
:1009300000000600f88f4200050035008100d1005c
:100940000080d3008502e800fcff3a0000000600aa
:100950008000eb00000005004f89de008201780076
:10096000410237006011b8005202370081002000b8
:10097000618055000b003d000b00200061fe2f0040
:100980000100e1001d0034008281710061016400fa
:100990008904d1000884d3000000e800faff3a007f
:1009a000710020006100640003007000020060001c
:1009b0000900320061044400e0844c000988a5006d
:1009c000050032008b05e8006808e10002003a00eb
:1009d0008904d1000884d300f20f20000258e100fe
:1009e00005003d00c75ddd00f907b2008980750094
:1009f00008007800000006000bf827008b00780044
:100a000000000500c70ade00f107b200f50fb200d2
:100a100008003200e1cf4200020032000170a00065
:100a200024000500810f7000010032000408050059
:100a300044000500810f700002003a001400050018
:100a40008502e9000000400081c04800fcff3b0037
:100a50000170a000240005000004be00e9ff0700ab
:100a60000003be000405be000200be00e5ff070053
:100a7000844f7500000006000200be006450e100d3
:100a8000050036006420e100020036000968a3007a
:100a900001003a000800be000160a0004f06780087
:100aa0004f05be004f04be0000000600f0ff2f00ff
:100ab000f1ff2700f9ff3700889fbe008a9fbe0024
:100ac0008c1f7800e4ff0700ebff330003866c0007
:100ad0006450e100240032006420e100270032006d
:100ae0006150e100220032006120e100210032006b
:100af0008b854200eb07b1000134b800003ab80022
:100b00000804420089844a00013ab8000030b80065
:100b10008880400009014a000400330000004000c2
:100b200081804800020149008b05e900c909dd0008
:100b3000830170000100320013002000c814de00a1
:100b40004814dd004709de001200b200c808de00cc
:100b50000884700085ff070001f0a1000cf0a700d9
:100b600001f0a000cdff37006120e100cfff32008f
:100b70000801be000200be00f7ff37006150e1002f
:100b8000fcff3a00c9ff37001400200000003700c6
:100b90000800fa00889fbe008a9fbe008c9fbe009e
:100ba000040678000004be000205be0057010700dd
:100bb0006420e1009f003e009b0032006120e100c4
:100bc0009600320003f0a100171b240036582c00b9
:100bd00005a02100040020001b0107000800be0042
:100be0000a01be000700350097012400b61f22004d
:100bf0004544250084d12200dd0107000004be0029
:100c00000205be008006eb000c00a700cf1ede0030
:100c100003f0a1000bf0a10047fd230006f325001f
:100c200095dc260034882c00d50107006022b8002e
:100c30000003eb0007fe23000c00a60007ff2300c3
:100c4000830007005c0107000000a7000d00a20060
:100c5000950107000c00e00004003a0007fe2300a5
:100c6000060020006022b8007600070003f0a20012
:100c7000009fbe000297be009700240006002200dd
:100c80006022b800be0107000802be000a03be00d1
:100c90006f000700809fbe00829fbe003e00be0026
:100ca0002e01be00f7f4230046542b00152d24001e
:100cb000a4462800b20107004f03be004f02be0049
:100cc000630007000004be000205be0003f0a1009f
:100cd00067e42300e6092a00f5672600d4bc230058
:100ce000d90007000800be000a01be004800350018
:100cf0000002be000203be00a1010700009fbe006b
:100d00000297be0087ce2300f60f280035992600f3
:100d100054f92d009a010700a7d62b0006422e0099
:100d200085c02d00c4992400490007003e02be0082
:100d30002e03be009201070067de2300c6232100b8
:100d4000a586260004432d00410007003e02be0098
:100d50002e03be008a010700a7e52b0056642e0073
:100d6000d5b52400b40a2c00390007003e02be00ad
:100d70002e03be008201070077ec230036de21003f
:100d800045522a0034062f00310007003e02be0003
:100d90002e03be007a010700a7f22b00061a2000de
:100da00015a02100a4e12300290007003e02be0097
:100db0002e03be007201070017f823001611210050
:100dc00015112100040b2100210007003e02be0086
:100dd0002e03be006a01070057fc2b005655250064
:100de0005555250054552500190007003e02be0048
:100df0002e03be00620107000802be000a03be0007
:100e00005f0107000802be000a03be0010000700d1
:100e10000d00a70003f0a200e20037000c00a600be
:100e200003ff2300df003700f3ff2700f2ff2f004e
:100e30006110b9000330a00014022000a442880011
:100e4000d800370007f0a2000100370000000000c2
:100e50002800fa00889fbe008a9fbe008c9fbe00bb
:100e600007067800878669000c003b0003047800c1
:100e70008704780008f0a10009f0a100840f500059
:100e8000858f5800860f5900890f5c0003003300de
:100e90000cf0a20001003a000cf0a100ad00070028
:100ea0006400e1005f003200780147006408e1005f
:100eb000610032006c014700748557003200be00ab
:100ec0001201be003a04be001a05be001e039000c7
:100ed000be0a90008503530006003d000004fd009b
:100ee0008104fd000205fd008305fd008703ea0083
:100ef000050378000df8a30004003200600414001c
:100f0000e0841c0060051d00e0851d006022b80023
:100f10007d0320000d38e1008006eb000b00390056
:100f20004433dd00f300b200830173003900370061
:100f3000848272000d027800e10664008b85d10086
:100f40000a85d3008984d3000884d3008703e9008d
:100f5000f7ff3b0008004000898048000a01490073
:100f60008b81490004003b0060001000e080180005
:100f700060011900e08119000358a3000900320044
:100f80008d82720084827200610260008301d10050
:100f90000281d3008180d3000080d3000603e800e3
:100fa0001b0037000348a30017003a000600e000ca
:100fb000170034000603e9000d00a30000004800fc
:100fc0008180480002014900838149000348a30051
:100fd0000f003a000600e000090034000603e900b3
:100fe00000004000818048000201490083814900df
:100ff00001003a000003eb000348a300f5ff3200b4
:101000006022b800020037008482720061826600ac
:101010001200070003f0a1000cf0a70003f0a000ed
:1010200060003700640147006408e10002003a00f4
:101030000df8a30058003a003200be001201be00b5
:1010400058003700000000008f1fd1004201070048
:101050008f87e9000000e000000006001800200073
:1010600057002000080453000d003d00060020003a
:1010700097fc2f000740e1001e00340084827200bc
:10108000610260008301d1000281d3008180d3001e
:101090000080d3000804e800f8ff3a004700200071
:1010a0006104600005047400040464000d00320053
:1010b00061004000e080480060014900e081490093
:1010c00003b8a500070032000603e8006538e10018
:1010d00004003a008301d1000281d3008180d30053
:1010e0000080d300f87f20000830e10003003500c5
:1010f000080378006000b8006011b8004433dd00d8
:10110000f300b200830173000000060005ff270012
:1011100005826100070032000428e100010032006e
:10112000240005000600070001003a004400050005
:101130000408050002000700f9ff3a00140005004a
:101140006f82610081027000850271008502720069
:1011500000000600680447000294be000094be0030
:10116000fc0447008694be008494be000900780009
:10117000990107000800780097010700990078009e
:10118000814f70000b003b000800be008401070087
:101190004f00b10003003700f3ff2700f2ff2f00dc
:1011a0006110b9004f06be004f05be004f04be00df
:1011b0000080fa00000006001400fa00889fbe00bc
:1011c0008a9fbe008c9fbe000004be000205be00c8
:1011d000680047000a90be000890be007e0107002c
:1011e0000070a7000bf0a100304320009e02900089
:1011f00080825200b0fe2f000028e10011003d0067
:10120000b0fc2f000028e100150034001e099000fa
:101210008e0890007e0090000501b0000201d10010
:101220008180d3000080d3008502e800fbff3a00f4
:101230000b00e000dbff3b0060001000e0801800c6
:10124000d8ff3700f0ff2f00f1ff27000b00e00070
:10125000d4ff3b000100280000002000d1ff370030
:101260006000b800cfff3700881f780003047800c3
:101270000300e00007003d0060001000e08018005f
:1012800060011900e081190002003b0001f02d000f
:10129000030037000700070008f0a70001f0a000d6
:1012a0004f047800000006004f89de0082017800bc
:1012b00070013700889fbe008a9fbe0000827000c8
:1012c0000402710004827100260032000004be0096
:1012d0000200be006011b8006b09200095022000da
:1012e0000182cf000a0039000541b1000082cf0021
:1012f000070039000541b1000982cf000400390020
:101300000541b1000882cf00010039000541b1005c
:1013100005425200120032000a003b008281710037
:10132000610164008100d1000080d3008984d30072
:101330000884d3008b05e8000442e800f7ff3a0078
:10134000070037000804440089844c00000048006e
:10135000818048008b05e9000442e900f9ff3a006a
:1013600082fd07004f05be004f04be0000000600ce
:10137000801feb00a20007008f87e9000000060035
:101380002800fa00889fbe008a9fbe008c9fbe0086
:1013900003866b006fff07000028a30064003a007b
:1013a0000128a30067003a000008a30062003a0089
:1013b0000108a30065003a001e009000be089000de
:1013c00081064000ed3fb100f4805700ee0190002f
:1013d000111ab8008e099000311bb8009e099000c8
:1013e000311cb800511db800f485570046000700b5
:1013f000fe0190003a0007008b85e8003e000700e0
:101400008e09900040000700ee01900034000700b4
:101410008b85e800380007008e0990004000070027
:101420009e0990001b18b800890440000a854800f6
:10143000fe019000340007008b85e80038000700ab
:10144000ee019000300007008e0990001b18b800d4
:10145000890440000a8548000a98a30008003a0061
:101460000402420085824a0006034b0087834b003a
:1014700008044c0089844c000a054d008d06e900e3
:1014800084827200850273004c3add00850272008e
:101490000100320015002000443ade001400b200c2
:1014a0004538de00cb45dd000b007000c540de0096
:1014b000cb4ddd008b8070004549de00cb55dd0053
:1014c0000b017100c551de000d037800e3fe07003b
:1014d00003f0a1000cf0a70003f0a00031ff3700db
:1014e0001b18b8008502400006834800e0834b00cb
:1014f00060044c00070037001b18b80006034000ca
:1015000087834800faff37001b18b80087034000a4
:1015100008844800e0844c0060054d00000006008f
:101520001b18b8000804400089844800faff3700ff
:101530000108a30018ff3a005800be005801be0081
:10154000e3ff37000008a30013ff3a000904780006
:10155000f9ff370000000000889fbe008a9fbe0090
:101560008c9fbe000404be000605be00809fbe0026
:10157000829fbe00e5fe0700040678000800be005a
:101580000a01be00e1fe0700840678004f03be009a
:101590004f02be008d4f76007fb0970013003300de
:1015a000f0ff2f008b8f6b0006003b000d066600de
:1015b0000c00a7000a00370007f0a600100020006a
:1015c0000a003700880f5200898f5a008a0f5b008b
:1015d0008b8f5b00030039001000200001003e00eb
:1015e0000000200007f0a7000000ea004f06be0040
:1015f0004f05be004f04be000000060000000000c2
:101600002800fa00889fbe008a9fbe008c9fbe0003
:101610000efe9700cffe07006108e1005c0032007b
:101620006200e1005a003e00540039006408e10005
:10163000520032006c014700748557003200be0032
:101640001201be003a04be001a05be009e029000c0
:10165000be0e90000d82520017003b000402e8000d
:1016600046003a00880f5000898f58008a0f5900b1
:101670008b8f590041003400640147007803470014
:101680003200be001201be003602be001603be00cc
:1016900007f0a10003f0a60007f0a0000c70a7005f
:1016a000ebfd0700bffe37000000400081804800ce
:1016b00002014900838149000c00a000080050008d
:1016c000898058000a0159008b81590005003b00b0
:1016d00008004000898048000a0149008b814900c8
:1016e0000c00a1000402e900efff3b0000024000f3
:1016f0008182480002034900838349001b003200b5
:101700000802520089825a000a035b008b835b0047
:101710004200f800050037000000400081804800ca
:1017200002014900838149008d06e9000340a600bb
:10173000f9ff37006022b8000d03780047fe07006c
:10174000780347004200f9000800350002003c0021
:101750000c08a300050032003602be001603be00ce
:1017600007f0a0000c70a700b9fd07005e02900012
:1017700004f0a70003f0a2008afe37002e009000bc
:10178000be0090004e019000de01900085fe370003
:10179000100220000c70a600a04288007efe3700d8
:1017a000e48240001078a300070032006402400089
:1017b0001178a3003400be001401be000400320002
:1017c0000330a700000006003500be001501be0072
:1017d0000330a00000000600800078005002be0028
:1017e0005003be004439de00f700b200f37f200052
:1017f00003016100090032000218e10016003a00fe
:10180000850172008301730083817300000820004a
:1018100015003a00400020001300370085017200d7
:10182000830173008381730005003a0004a8be00a1
:1018300006a8be00100020000b0037000201e900de
:101840000402420085824a0006034b0087834b0056
:101850000748a300f9ff32000740a00004a8be001b
:1018600006a8be002000200080009800920098008a
:1018700000000600881f7800030478000300e000e1
:1018800007003d0060001000e080180060011900b2
:10189000e081190002003b0001f02d000300370039
:1018a0000400070008f0a70003f0a0004f04780030
:1018b00000000600889fbe000082700004027100d4
:1018c000048271002400320036432000c50020004d
:1018d0008383cf000a0039000541b1008283cf0025
:1018e000070039000541b1008183cf0004003900b1
:1018f0000541b1008083cf00010039000541b100ee
:1019000085c353006022b800120032000a003b0079
:1019100084827200610260008301d1000281d300e1
:101920008180d3000080d3000603e8008743e800ed
:10193000f7ff3a00070037000000400081804800b0
:1019400002014900838149000603e9008743e90059
:10195000f9ff3a00c1fd07004f04be000000060079
:10196000e187200000003700889fbe008a1f7800b2
:101970000004be00c900900069009000808f5000f4
:101980000500390009007800580007008080eb004e
:101990000000e0001600350008457800490090007e
:1019a00008587800c00498001900780000b8a30017
:1019b00004003a0000a8a30007003200ea4f5400d8
:1019c00005003a00090078000d0007008080eb0058
:1019d0000000e00006003a0000c02000190060008e
:1019e0000200320049009000e00498008a80fb0069
:1019f000010078004f0578004f04be00000006008b
:101a0000889fbe008a1f7800000478000800e0006c
:101a10000d003a00c88c2000700544008004eb00e3
:101a2000580078000000e00004003200f4ff0700d6
:101a30000000e00001003d008084eb008a0f5400ac
:101a4000f7ff3a0025003700000022001800600070
:101a50008004eb0021003200a80490000f00370042
:101a600009015100384090000000fb008900780017
:101a7000b0fa07000000e00007003c0028009000da
:101a80004004980060049800500c98001890a00042
:101a90008084eb00110037008084440048019000ee
:101aa000828f5400eeff3900280090004004980017
:101ab0009800780002c020000281600001003a0016
:101ac0003800900001e8a300020032006004980092
:101ad00001003700500c98008004eb0009007800ea
:101ae0004f0578004f04be0000000600889fbe002e
:101af0008a1f780000047800c800900068019000f8
:101b00000000eb00828f50003c0039001800780084
:101b10002200290002016000e20f5100070032009c
:101b2000012024000000e00001003d000120200011
:101b3000008c70000080eb003000370002002600af
:101b400002006000820f500009003a003800900047
:101b5000808f50000600390008007800a8ff0700b9
:101b6000800078000080eb000100e00023003a00d4
:101b70001805780000c020000000650018003a0039
:101b8000a80490006002200008004000808f5400ec
:101b900013003a0000202000d8000700200498001d
:101ba0000000e00005003a0029049800490498006c
:101bb0008904e80039049800080037000a60a00092
:101bc0000a0c78004004980001202000808040002a
:101bd00031049800400c9800500c98000c0007004d
:101be000280090005004980038009000600498008d
:101bf00000002600180c70000000eb004f05780074
:101c00004f04be0000000600e0e92000e5003700b8
:101c1000881f7800089220001804e00003003a00b2
:101c2000f9ff070020c0b300004c78004f04780093
:101c300000000600889fbe000004780008007800bd
:101c40006fff070080047800000420001800600087
:101c50000200320028009000430007000000eb0063
:101c600020049800384090000004e0000500350092
:101c70000000fb0026fa07000000e000010032002f
:101c80008084eb00181090000000e0000800320093
:101c90006afa07000000e000010032008084eb00d7
:101ca00018109000300007000000eb00101498009e
:101cb00000082000180060000f003200c18c2000d6
:101cc0000000eb00d10f140005003a0000004000b6
:101cd000e18c2000008040000008eb00030037008a
:101ce0000000e800e80f5000f6ff3a000800780016
:101cf0001d0007000e003700000c780000c0eb004c
:101d00003044980060022000080040002004980041
:101d10004004980050049800400c9800600498001b
:101d2000500c98007004980076004400000c980055
:101d3000090078004f04be0000000600889fbe0026
:101d4000e88d2000f0045400480078000000e00016
:101d500001003200b7ff0700890f5400faff3a0074
:101d60004f04be00000006000000e0002f0032001b
:101d7000c0017800e38f51002c0036000308a30057
:101d80002a003a00d14880000100e0000200320041
:101d9000810f50000400310011009800d0488800e5
:101da0001600370082007800110190000200e00068
:101db00002003200800f5100faff39001102780052
:101dc00084824000850f500018003900808f520037
:101dd00003003a0083084200010078000700370042
:101de0000200e0000300320083014000830f510035
:101df0000e003900120098009000980090009000aa
:101e00000100e0000900320010014000828f500004
:101e100006003a00829120000009eb0010017800d2
:101e20001108410091009000110098000000060088
:101e3000889fbe0000047800c14880000100e000d7
:101e400002003200010078000d003700d148800008
:101e5000a091200004003700910f540025003600a7
:101e60000180e800910090000100e000faff3a00d4
:101e700010003700920f54001e0036000280e80068
:101e8000100178000200e000faff3a00110178002a
:101e9000d1488000a091200004003700910f540029
:101ea000140036000180e80091009000828f5000fd
:101eb000faff3a0019498000888f54000100310070
:101ec0008804780009007800420007000000e00064
:101ed00004003a00888f5400050032008904d100c4
:101ee000f5ff3700091878009fff0700d2ff370081
:101ef0000000eb004f04be0000000600881f7800c1
:101f0000630440000800a1008000eb00800f540033
:101f100021003600e30f540001003e00480020007d
:101f200008007800c2ff07008000eb000000e0001e
:101f3000190032009000780091017800648151000e
:101f4000880f510003003100110190000208780051
:101f500007003700088140000208780091019000d6
:101f60001301980010017800110914008808780006
:101f7000100178000000eb000200e00004003200d5
:101f8000920190000300e000010032000280e800ae
:101f9000c04888008180e800010078004f04780084
:101fa00000000600010020000100e00008003200ef
:101fb000010080000100e000050032008100e9001e
:101fc00001008800818040000200800000b178009c
:101fd00000000600800078000000eb000100e00037
:101fe00005003400010078009df90700e10f400072
:101ff00001003a000000eb0000000600889fbe00d0
:1020000000047800010078008204780088017800dc
:102010000901780011002000ef000700890f50002f
:10202000010032000004eb00080078004f04be00fd
:10203000000006000000fa00e88157004fb9970041
:10204000e1872000e0ff2000020007000080fa0086
:10205000000006006200fa00889fbe008a1f780018
:10206000000578008104780002047800830078007d
:1020700080f92f000f0040000a0207009a979f0086
:10208000a9979f000000eb00b09f9f001885fb0000
:102090008a04fb000a05ea004f55de0050022000ca
:1020a000808f54000d003200e10f55000b003a0004
:1020b0000a017800880078002f9097009f91970080
:1020c00003000100a0979f000000e0008e00320096
:1020d0003f9897000000e800b09f9f000a0444006a
:1020e00050022000808f5400040032000900e000fc
:1020f000e6ff3a003f989700840037000000eb00ad
:10210000909f9f00809f9f00f0979f00e0979f0007
:10211000d0979f00c0979f000700370021912000b3
:102120000100500000004000619020006100780034
:10213000df98970001007000d09f9f00880478000e
:1021400009047800384578008a00fb0020912000bf
:10215000060107000000e000f0ff3a00a1c2b30052
:10216000814f55000e003a00cf8897000180e900aa
:10217000c08f9f0010007800c09f9f000000e0000b
:1021800005003d000000ea00c09f9f005f98970097
:102190000020a000d09f9f000904e8000f00370036
:1021a000c09f9f000000eb0005003700f2ff2700f2
:1021b000820f5000020032006a01b9000280400024
:1021c0000904780088047800b900fb000103b1001d
:1021d000e98f5000f5ff3600c09f9f00e0c2b300ba
:1021e000984f1000020032000080eb001900370009
:1021f000a0c2b300d84f100007003a00cf88970064
:102200000180e900c08f9f0010007800a09f9f0010
:102210000804e800100037000000eb00a09f9f00ba
:102220008800780005003700f3ff2700830f500077
:10223000020032006a02b900040041000104780083
:10224000880078003101fb000203b100e90f510062
:10225000f5ff3600a09f9f00984478008900fb009e
:10226000e08f2000c10007000000e0000200320003
:102270000804e800010037008044eb00c97f9f009c
:1022800080c6b30080cf540004003a0098cf1400f9
:102290000a003a006640500006003700c0c6b3008e
:1022a00080cf540005003a0098cf140003003a0094
:1022b00065404000c07f9f000804e8001801fb0053
:1022c000e3fb2f008f81410081f92f008f804000b8
:1022d000a0f92f000f004000100007000000e000f0
:1022e00009003a00e1fb2f008f804000a0f92f0089
:1022f0000f004000af0007000000e00002003500c2
:102300000804e80061ff37000080eb004f0578000b
:102310004f04be000080fa0000000600889fbe0047
:102320008a1f78000004780030c5b300804f510048
:102330000800320030c7b300804f51000500320062
:1023400051c2b30078009000814f510017003a004d
:10235000140037001180e90080087800100578002b
:102360006a049800d80c90000900e00004003d00c9
:102370000a00780089000700800478000700370011
:10238000090178008000eb000a0078006600070071
:102390000000e000010032008a045000190c98008f
:1023a0000900370082717800050037008081410004
:1023b0000204e00001003a000141780082497800ff
:1023c0000000e800700498000000eb004f05780062
:1023d0004f04be0000000600889fbe008a9fbe001a
:1023e0008c9fbe008e1f78000006780001047800e4
:1023f00002007800830478000881b90002077800a1
:102400000200e000420032000800e000410032001b
:1024100082057800c900900069009000808f50000c
:102420000400390009007800b0fd07000000e0005a
:102430002900350000402000190060000a00320029
:102440000b017800a10020000c0078003600070086
:10245000800678000d00e0000600320061051600dd
:102460000a854600040037000b0578008006eb0063
:10247000010037000b05780049009000e90090004a
:10248000808050008a8f50000200310001057800e2
:102490008006eb000a0178008c0078002c00070011
:1024a0008a855500490090000a004000c004980049
:1024b0000d00e000040032000900780050fd070024
:1024c0000000e00004003a000b00e00002003200cf
:1024d0000a064600cfff3700008020001900600088
:1024e000020032000900780045fd070000c020000e
:1024f000190060000200320049009000e0049800da
:102500008b055700110009008885d80001003700ad
:102510000000eb004f0778004f06be004f05be00dd
:102520004f04be000000060003003700b0cf1000cb
:10253000050032000201e900800178000200e0009d
:10254000faff3a00000005000300780000000600d2
:102550008001780002003700b15978000201e900db
:102560000200e000fcff3a00000006000200370015
:102570000304e00006003200000178000200780049
:10258000b041780081cf5100f9ff3a0001003700d7
:102590000001eb00020078000000060080007800d7
:1025a000010178003104e000fdff3a000000510015
:1025b000000006000400fa00889fbe008a9fbe004b
:1025c0008c1f78000004780001067800f80d900058
:1025d000780090008085550008089000808555009f
:1025e00018089000808555002808900080855500c7
:1025f0003808900080855500480890008085550077
:102600000002220090bf9f0000032300a0bf9f0094
:10261000081090000028a30015003a000b00e0000d
:10262000130034000b0578008a047800e20f55008f
:102630000100360029002000c8019000090178003f
:10264000ee805700580090000300010050049800ed
:102650000000e0008c003200680890000900400093
:10266000600c9800090555004240a900eeff3c00af
:10267000780190000200e0000c003400c8019000d6
:102680008c0078005800900003000100500498006e
:102690008080eb000000e0007c003200e808900041
:1026a0007800900000804000600c9800880c90003a
:1026b0000900e0001100340009057800e28f5400a1
:1026c000010036002a002000c80190000a017800ad
:1026d000ec8057005800900003000100500498005f
:1026e0000000e00068003200680890000a00400026
:1026f000600c98008a845400edff370018099000a0
:102700000200e0000c003400c8019000e8009000d6
:102710005800900003000100500498008080eb00f6
:102720000000e00059003200e8089000180890000e
:1027300000804000600c9800a80c90000900e000a8
:102740001100340009057800e28f540001003600c2
:102750002a002000c80190000a017800ec80570090
:102760005800900003000100500498000000e000b1
:1027700045003200680890000a004000600c980094
:102780008a845400edff3700380990000200e00011
:102790000e003400e800900018089000808040008f
:1027a000c8019000580090000300010050049800f8
:1027b0008080eb000000e00034003200e808900068
:1027c0003808900000804000600c9800c80c900011
:1027d0000900e0001100340009057800e28f540080
:1027e000010036002a002000c80190000a0178008c
:1027f000ec8057005800900003000100500498003e
:102800000000e00020003200680890000a0040004c
:10281000600c98008a845400edff37000810900087
:102820008000eb000028a300180032000b00e0003d
:10283000160034008b04780009057800e28f5400fc
:10284000010036002a002000c80190000a0178002b
:10285000ee805700580090000300010050049800db
:102860000000e00008003200680890000a00400004
:10287000600c98008a8454004240a900eeff3c009e
:102880008000eb00010037008080eb000100780041
:102890004f0678004f05be004f04be000080fa00ce
:1028a00000000600010878000000060000c0da0001
:1028b0000000060000c0da000000060000c0da00d8
:0428c000000006000e
:020000040000fa
:1028c4003f2500001c1e0000201200002a9000007a
:1028d400241100000000000000000000002000009f
:1028e400202000002005000015000000a73d000086
:1028f400182500002a2b00002b3a00000d0a0000c6
:10290400526500006164000079200000746f0000cb
:1029140020720000656300006569000076650000b0
:1029240020310000362d0000626900007420000090
:10293400636f00006c6f0000722c000020310000f7
:10294400323800007831000036300000202e0000bc
:10295400626d0000702000006f7600006572000058
:10296400207800006d6f0000646500006d20000099
:10297400200a00000d0000000d70000072650000c8
:1029840073730000206100006e7900006b65000025
:1029940079200000616e000064200000746800006b
:1029a400656e000020730000656e0000642e000058
:1029b4002e2e0000202000000a0d0000004100001f
:0829c400434b0000000000007d
:020000040000fa
:1029cc000200fa001f040700a166a90010002000f5
:1029dc008408070000902000d10320002f0c070072
:1029ec00100120007f08070000602a00e100200091
:1029fc002a0c0700900220007a080700001027001c
:102a0c0021002000250c0700a003200075080700fa
:102a1c00500020006708070000502300c100200070
:102a2c001e0c0700600220006e080700400020000a
:102a3c006008070000f4210001002000170c0700bb
:102a4c00200f20006708070010002000590807001d
:102a5c0000f4210001002000100c070030012000c0
:102a6c0060080700600b20005e080700f00f2000d4
:102a7c0050080700600020004e080700000e2000e0
:102a8c00580807000040eb00004f780006003700a4
:102a9c001e80fb0021462900614078000080fb006d
:102aac00440807001e4fe8001e407800ee4f50000f
:102abc00f7ff3600100e20004a0807000040eb001c
:102acc00004f7800060037001e80fb0011472900dc
:102adc00614078000080fb00360807001e4fe800bc
:102aec001e407800ee4f5000f7ff3600100b200010
:102afc003c080700800020002e0807002000200062
:102b0c002c08070000f4210001002000e30b070053
:102b1c00400b200033080700700020002508070038
:102b2c0000f4210001002000dc0b0700000c200049
:102b3c002c080700a00020001e0807002000200021
:102b4c001c08070000f4210001002000d30b070033
:102b5c00100c200023080700200020001508070097
:102b6c0000f4210001002000cc0b0700500c2000c9
:102b7c001c080700000520000e0807003006200086
:102b8c000c08070000f4210001002000c30b070013
:102b9c00700c2000130807000000eb00050807006c
:102bac0000f4210001002000bc0b0700a002200053
:102bbc000c0807000000eb00fe0707000000eb000c
:102bcc00fc0707000000eb00fa07070000082000d4
:102bdc00f807070000f4210001002000af0b0700ec
:102bec00b0022000ff0707000000eb00f107070010
:102bfc000000eb00ef0707000000eb00ed070700fb
:102c0c00000a2000eb07070000f42100010020005f
:102c1c00a20b070030032000f20707000000eb00b6
:102c2c00e40707000000eb00e20707000000eb00e0
:102c3c00e0070700000a2000de0707000000eb0099
:102c4c00dc0707000000eb00da07070000f42100a6
:102c5c0001002000910b070004c8bf001000070002
:102c6c0020c0b3006900070090022000dd070700b8
:102c7c000010270021002000880b0700c002200054
:102c8c00d807070000502300c1002000830b070069
:102c9c000000eb00120007000080fa0000000600a4
:102cac000200fa00004f78001e4078000004e0009b
:102cbc0006003a00018020009140780070cfb300ec
:102ccc0000c0600000e8b7000300370000c8bf0078
:102cdc000034a00000e8b7000080fa0000000600f5
:102cec000400fa0010079800f3092000f2072000f6
:102cfc008000eb000000eb000c0007000000eb0074
:102d0c00000f7800030037001e00900092070700a8
:102d1c001e0fe800f0ff24009e007800808f50000a
:102d2c00f9ff34000080fa00000006000800fa00e9
:102d3c00000f7800110798002207980033079800bd
:102d4c00a0022000a707070001c8bf000004e00094
:102d5c000300320001c8bf00e14f500009003600eb
:102d6c000000eb00930707001e0078009107070096
:102d7c000000eb008f0707002e0090008d07070066
:102d8c00080037000000eb008a0707001e007800df
:102d9c00880707000000eb00860707002e00900054
:102dac0084070700b00220008e07070001c8bf008f
:102dbc000004e00009003a000000eb007d0707006a
:102dcc001e0090007b0707000000eb00790707004e
:102ddc003e00900077070700080037000000eb006a
:102dec00740707001e009000720707000000eb003c
:102dfc00700707003e0090006e070700c00220001d
:102e0c00780707000080fa00000006000200fa00b4
:102e1c00004f78009e40780063c0600001e8b70066
:102e2c0001c8bf000080fb00e10f50001100320010
:102e3c00e10f500003003c000000e00006003200ef
:102e4c0021003700e20f500011003200e30f500058
:102e5c00160032001c00370080c0b30000e8b70039
:102e6c0000c8b30002e8b70000cab30003e8b7001b
:102e7c001500370080c6b30000e8b70000cab300e5
:102e8c0002e8b70000c8b30003e8b7000e00370033
:102e9c0080ccb30000e8b70000c8b30002e8b7006c
:102eac0000cab30003e8b7000700370080cab300bc
:102ebc0000e8b70000c8b30002e8b70000cab300ce
:102ecc0003e8b7000000000060032000450707007e
:102edc0000c8bf000080fb00360707000080fa0026
:102eec00000006000600fa00000f78001107980099
:102efc00220798009e0090001e0078003b000700ff
:102f0c000004e00008003a009e0190001e017800c9
:102f1c009e0090001e00780084ff07002e00900099
:102f2c000d07070001003700000000000080fa00c8
:102f3c00000006000800fa00000f78001107980046
:102f4c0022079800330798009e0090001e0078001e
:102f5c00260007000004e00021003a002e0090003b
:102f6c001e0040008000e90002c8bf000080fb008a
:102f7c00808f50000400350002c8bf000080fb00a9
:102f8c001e005000200798009e0190002e0090001b
:102f9c001e0040000000e900000178009e00900037
:102fac001e00780061ff0700020037003e00900011
:102fbc00e906070010c0b300ae0090000100e0006d
:102fcc0001003c000040eb00ae0090008100e900e5
:102fdc00210798000004e000f4ff3a0001003700dc
:102fec00000000000080fa00000006000400fa0057
:102ffc00000f78001107980002c8bf000080fb008a
:10300c009e0f50000500340003c8bf008080fb00f9
:10301c001e009000808f500002003c0010c0b300d6
:10302c00010037000040eb000080fa0000000600b1
:10303c000800fa00000f780011079800220798008a
:10304c00330798009e0090001e007800e7ff0700f1
:10305c000004e00024003a009e0090002e00900036
:10306c00008040008000e90003c8bf000080fb0026
:10307c00808f50000500350003c8bf008080fb0026
:10308c001e00900000805000200798009e009000c9
:10309c002e009000008040000000e90080017800c4
:1030ac001e0178009e0090001e0078001fff070094
:1030bc00020037003e009000a706070010c0b300c6
:1030cc00ae0090000100e00001003c000040eb006d
:1030dc00ae0090008100e900210798000004e00098
:1030ec00f4ff3a0001003700000000000080fa00f5
:1030fc00000006000800fa00000f78001107980085
:10310c0022079800330798009e0190002e00900033
:10311c001e0040000000e900000178009e009000b5
:10312c001e00780001ff07003e0090008a06070091
:10313c002e0090000000e900200798002e0090005f
:10314c000000e000f8ff3c00c0022000a5060700cc
:10315c000080fa00000006000800fa00000f78005a
:10316c001107980022079800330798009e009000e2
:10317c002e009000008040000000e90080017800e3
:10318c001e0178009e0090001e007800e7fe0700ec
:10319c003e009000700607002e0090000000e90031
:1031ac00200798002e0090000000e000f8ff3c0083
:1031bc000080fa00000006001a00fa00000f9800c8
:1031cc00110f9800220f9800330f9800440f9800ad
:1031dc009e0890003e089000808f50001f003a001f
:1031ec00ae0890000e089000808f5000090034004b
:1031fc00ae0890000e089000008050000001e8001e
:10320c009e0890000e089000ce09900049ff070020
:10321c00dd003700ae0890000e089000808f500043
:10322c0009003d008e0890002e0890000080500090
:10323c000001e8009e0890002e089000ce09900036
:10324c003cff0700d00037009e0890000e0890004d
:10325c004e09900023ff0700cb0037008e0890002a
:10326c002e089000808f500016003a00be08900087
:10327c001e089000808f500009003400be0890009a
:10328c001e089000008050000001e8009e0890008d
:10329c000e089000ce09900065ff0700ba003700b9
:1032ac009e0890003e089000008050000001e8004d
:1032bc00be0890000e089000ce0990005cff07003d
:1032cc00b1003700be0890001e089000008050002e
:1032dc000001780002f0a7000201ea00ae0890009d
:1032ec000e089000008050008000780001f0a700cc
:1032fc008100ea0010c0b300810f510001003c00b6
:10330c000040eb00604798006e4090000004e00025
:10331c0006003200f2004700700047009c000700d6
:10332c00f600470074004700990007008e089000d3
:10333c002e089000808f500006003400f4004700e7
:10334c007000470092000700f6004700720047002b
:10335c008f000700ae0890000e089000008050000f
:10336c0040079800be0890001e0890000080500096
:10337c0000f0a7000000ea00500798004e009000f3
:10338c00cf00de00008040000080d100000f7800ec
:10339c009e0890003e089000808f500003003d0076
:1033ac001000200010079800020037000080eb008e
:1033bc00100798008e089000210798006e4090002e
:1033cc000004e0005d003200240037005e00900035
:1033dc001e0f10001e0078000000e0001c003d00d5
:1033ec008e0890002e00900000805000600798001e
:1033fc006e0090000000e000080032006e009000ab
:10340c008000e8001e089000ce09900001017800b1
:10341c00ae00900050ff0700040037008e089000ab
:10342c001e0890004e099000aefe07000e0890009a
:10343c000000e800200798009e0890001e009000f5
:10344c0000804000100f98004e0090001e0f4000ae
:10345c000e0890000000e800000f98008e08900005
:10346c002e089000808f5000d8ff34002e00900062
:10347c008000e8000e089000808f500042003d0054
:10348c008e0890002e009000808050001e08900046
:10349c00ce09900001017800ae0090002eff0700cd
:1034ac00390037005e0090001e0f10001e007800df
:1034bc000000e0001d003d008e0890002e009000e2
:1034cc0000805000700798007e0090000000e00023
:1034dc00090032007e0090008000e8001e08900079
:1034ec00ce09900001017800800078002e00900039
:1034fc0000ff0700040037009e0890000e089000a3
:10350c004e09900077fe07000e0890000000e800be
:10351c00200798009e0890001e009000008040003c
:10352c00100f98004e0090001e0f40000e089000e7
:10353c000000e800000f98000100370000000000b8
:10354c008e0890002e089000808f5000d5ff34001c
:10355c002e0090008000e8000e089000808f500034
:10356c0009003d008e0890002e00900080805000d5
:10357c001e089000ce0990000101780080007800b0
:10358c002e009000dbfe07000080fa000000060011
:10359c000600fa0010079800210798001e00900002
:1035ac00100f78002e009000900078001e00900004
:1035bc00010878002e0090001e0878000080fa00a8
:1035cc00000006000a00fa00404798005147980096
:1035dc006247980043079800ee409000014f780036
:1035ec000040eb00104798001e80fb0061001000ab
:1035fc0010079800700037005e4090008080fb0040
:10360c001e80fb00808040004e4090000081fb003b
:10361c001e4090000080fb00000051004e01900005
:10362c0030fe07005e4090008080fb001e80fb0097
:10363c00808040004e4090000081fb001e409000b6
:10364c000080fb00000041004e01900025fe0700a9
:10365c005e4090008080fb001e4090000080fb00cc
:10366c00808040004e4090000081fb001e80fb00db
:10367c00000051004e0190001afe07005e409000c1
:10368c008080fb001e4090000080fb00808040008a
:10369c004e4090000081fb001e80fb0000004100aa
:1036ac004e0190000ffe07005e4090008080fb00f2
:1036bc001e4090000080fb00808050004e40900027
:1036cc000081fb001e80fb00000051004e019000a9
:1036dc0004fe07005e4090008080fb001e409000be
:1036ec000080fb00808050004e4090000081fb0069
:1036fc001e80fb00000041004e019000f9fd070008
:10370c005e4090008080fb001e80fb00808050009b
:10371c004e4090000081fb001e4090000080fb009a
:10372c00000051004e019000eefd07005e4090003d
:10373c008080fb001e80fb00808050004e4090007b
:10374c000081fb001e4090000080fb000000410047
:10375c004e019000e3fd07001e4090000040e80081
:10376c00104798001e0090000000e00008003d008b
:10377c001e4090000080fb00000040000000e800ac
:10378c009e00900000804000100798000a0037004f
:10379c001e4fe9001e4090008080fb001e80fb0045
:1037ac00008050000000e800000040009e009000e7
:1037bc0000804000100798001e4090009e4078004a
:1037cc0080cf50008cff31000080fa000000060012
:1037dc000800fa001007980021079800320798009b
:1037ec001e0090004800dd00000f78002e009000b5
:1037fc004300dd001e0f70003e0090004300de0011
:10380c001e0f70001e0078000080fa0000000600f9
:10381c001000fa00400798005107980062079800c2
:10382c00730798006e00900061001000000f780084
:10383c001000200010079800ee009000e0ff2f0011
:10384c000088b90000007800200798000040eb00c9
:10385c00604798006e00900070479800de00900062
:10386c006e00900000804000800178004e019000b6
:10387c00de0090006e009000008050008000780008
:10388c004e0090007e0290004bfe07006700370050
:10389c001e0078000000e000080035007e4090001b
:1038ac000040e900704798002e0090000080e8006e
:1038bc00200798002e0090001e0f40006e409000d4
:1038cc000040e800604798001e0090000080e8006f
:1038dc00100798001e0090001e0f40007e409000c4
:1038ec000080fb00de00900000805000800178001a
:1038fc006e4090008080fb004e00900000804000e5
:10390c00000178007e4090008080fb005e009000fb
:10391c0000804000800078006e4090000082fb0028
:10392c004e009000000042007e02900022fe070034
:10393c007e4090000080fb00de0090000080500074
:10394c00800178006e4090000080fb00ce0090005b
:10395c0000805000000178007e4090008080fb00c9
:10396c005e00900000804000800078006e40900067
:10397c000080fb004e029000000052007e0290007e
:10398c000dfe07006e4090000080fb00de009000f2
:10399c0000805000800178007e4090008080fb0009
:1039ac004e00900000804000000178006e409000b6
:1039bc008080fb005e00900000804000800078005a
:1039cc007e4090000082fb004e0090000000420000
:1039dc007e029000f8fd07006e4090000080fb0016
:1039ec00de00900000805000800178007e40900046
:1039fc000080fb00ce009000008050000001780099
:103a0c006e4090008080fb005e00900000804000c3
:103a1c00800078007e4090000080fb004e029000f9
:103a2c00000052007e029000e3fd0700ee40900083
:103a3c007e40900080cf500095ff39000080fa0046
:103a4c00000006000000fa0000882300110020008e
:103a5c001208070066e6a90000f42100010020000e
:103a6c000e08070066e6a80000a0260081012000d1
:103a7c000a0807000080fa00000006000800fa009f
:103a8c0020479800314798004247980053479800c8
:103a9c00340798000000eb00000f78003e409000c7
:103aac008080fb005e4090000080fb0000804000a6
:103abc00800178002e4090008080fb004e409000ea
:103acc000080fb0000804000000178003e40900028
:103adc008080fb002e4090000080fb0093fc0700d0
:103aec003e0090001c0407001e0fe9001e00780029
:103afc000000e000faff3a000080fa000000060027
:103b0c000600fa00200020004b0007000080fb009c
:103b1c001007980030002000470007000080fb00d1
:103b2c004800dd009e009000010070001007980016
:103b3c00a00020004000070040479800f309200037
:103b4c00f20720008000eb000000eb0077fc070080
:103b5c00c0f12100000001000200370030042000f9
:103b6c007cf70700d01c8000610060000000e000c2
:103b7c00faff3200320707000000eb00000f78005c
:103b8c00030037005e0707003d68ef001e0fe800da
:103b9c00b00820009e007800808f5000f9ff36009e
:103bac000000eb00000f78000500370054070700f9
:103bbc000080fb00e80307003d68ef001e0fe800e3
:103bcc00709127009e007800808f5000f7ff360020
:103bdc00230707000080fa00000006000400fa002a
:103bec00000f780021479800a386a90060c0b3009d
:103bfc0072050700a386a80000000000a386a90098
:103c0c0020c0b3006d0507001e0078004800de00e0
:103c1c0000407800690507001e007800004078001d
:103c2c00660507002e40900064050700a386a800d7
:103c3c000080fa00000006000400fa00100798004b
:103c4c00a386a90030c0b3005c0507001e009000dd
:103c5c004800de0000407800580507001e00900068
:103c6c0000407800550507000040eb0053050700a5
:103c7c00004f7800a386a8001e4078000080fa0050
:103c8c00000006000000fa00f50607009021ef0086
:103c9c00eb0607000080fa00000006008c00fa001a
:103cac000040eb0060479800a1cfb3000000eb0090
:103cbc00caff0700000000000000eb00deff070059
:103ccc00004f78000000000000482900801f780099
:103cdc00d5f807008f87e900e04b2900801f78009a
:103cec00d1f807008f87e9000000eb00100798005f
:103cfc0010c0b3003de8b70001070700000707003c
:103d0c00ff060700fe0607003d68ef0002003700c3
:103d1c00300420000ff70700d01c80006100600009
:103d2c000000e000faff3200c50607000000eb00bf
:103d3c002007980008003700f106070067014700cc
:103d4c00ae00900081004100804878002e00900069
:103d5c000000e80020079800ae009000400820000a
:103d6c00808f5000f4ff36003dc8bf000004e00017
:103d7c00100032003d68ef007e409000f54f50007f
:103d8c000c003a00104e2900801f7800a6f807009e
:103d9c008f87e900da060700f74f500005003a005c
:103dac00104e2900801f78009ff807008f87e900cc
:103dbc001a003700aa0607009e0090007091270099
:103dcc00808f500014003e0030c0b300004f7800cc
:103ddc00090037001e80fb0000004700f0409000f7
:103dec001e0090001e0190000201e80012079800ce
:103dfc007aff07001e4fe8001e4078000004e00028
:103e0c00f4ff3d009021ef008d06070060002000bc
:103e1c00d0f60700c5ff3700000000009006070031
:103e2c001e0090000080fa00000006000000fa005e
:103e3c0010c0b3003de8b700b1060700b00607009c
:103e4c00af060700ae0607003d68ef000080fa00e1
:103e5c00000006000000fa00ae00070042c1b300eb
:103e6c0071c3b30020c0b300c40007000080fa0087
:103e7c00000006000200fa00889fbe00f04180009e
:103e8c00f30120000001780001052000000420004f
:103e9c005ffe0700f0418000640050008001eb00e1
:103eac0000017800010520000004200058fe0700e6
:103ebc000040eb00004f78001e80fb00a005b10015
:103ecc00cf80de00a1f207000002be00004280009d
:103edc00114280000001be000400be00f3f2070096
:103eec005cf2070050408800614088001e80fb0097
:103efc00a005b100cf80de0094f207000002be00e6
:103f0c0000428000114280000001be000400be008f
:103f1c00e6f2070019f307002042880031428800be
:103f2c00f0418000640050008000eb008af2070032
:103f3c000002be0050408000614080000001be00c5
:103f4c000400be00d9f207000004be00304080001f
:103f5c008000eb0080f207000001be000800be00ec
:103f6c00dff107005ef20700000078007041880066
:103f7c00f0418000640050008000eb0076f20700f6
:103f8c000002be0020428000314280000001be00d1
:103f9c000400be00c5f207000004be0040408000d3
:103fac008000eb006cf207000001be000800be00b0
:103fbc00cbf107004af2070000007800904188001e
:103fcc00f04180006b0050008000eb0062f20700b3
:103fdc000002be0050408000614080000001be0025
:103fec000400be00b1f207000004be0030408000a7
:103ffc008000eb0058f207000001be000800be0074
:10400c00b7f1070036f20700000078008041880005
:10401c00f04180006b0050008000eb004ef2070076
:10402c000002be0020428000314280000001be0030
:10403c000400be009df207000004be00404080005a
:10404c008000eb0044f207000001be000800be0037
:10405c00a3f1070022f2070000007800a0418800bd
:10406c00a041800080017800804180000001780030
:10407c00904180008000780070418000f4012000a5
:10408c004dfc07009e4078007ecf40008aff370031
:10409c000400fa00100798000040eb00004f780075
:1040ac001e00900090407800f0c2b30080cf50000a
:1040bc000a0034001e0090009040780090c3b300ba
:1040cc0080cf500005003c001e009000104078008e
:1040dc008040780000cdb30000cf40001e40780037
:1040ec006a00b90000007800804078001e00900043
:1040fc000000e800100798001e00900010407800a7
:10410c0080c0400000cdb30000c040000080fa0029
:10411c00000006000000fa00000420003040880077
:10412c00000520004040880030408000104188008d
:10413c0040408000204188003040800030418800a1
:10414c004040800040418800304080005041880051
:10415c00404080006041880046ff070020c0b3004b
:10416c003ae8b70020c3b3003be8b70040c1b30046
:10417c003ce8b7000080fa00000006000400fa00da
:10418c00889fbe008a9fbe008c1f7800004f78006d
:10419c0011479800224798002e4090000080fb00a9
:1041ac006600b90000007800cf80de00e7f1070060
:1041bc00b0408800c14088001e4090000080fb0089
:1041cc006600b90000007800cf80de00dff1070048
:1041dc000004be00b0408000c1408000a2882800ce
:1041ec0083c8230031f207000001be000800be00a6
:1041fc003bf10700d0408800e14088001e80fb00a6
:10420c007e00b90000007800cf80de00cff10700ff
:10421c000004be00d0408000e140800062aa2a0069
:10422c00a3da230021f207000001be000800be0043
:10423c002bf10700f040880001418800f04080001d
:10424c000141800002002000432b240023f10700d1
:10425c000002be0000428000114280000001be003e
:10426c000400be0011f207007af1070060428800da
:10427c0071428800f0408000014180000200200063
:10428c00432b240015f107000002be000042800001
:10429c00114280000001be000400be0003f20700c2
:1042ac0036f2070090408800a1408800d040800082
:1042bc00e140800002002000432b240007f107009e
:1042cc000002be0000428000114280000001be00ce
:1042dc000400be00f5f107005ef1070040428800c3
:1042ec0051428800d0408000e14080000200200054
:1042fc00432b2400f9f007000002be0000428000ae
:10430c00114280000001be000400be00e7f107006e
:10431c001af207007040880081408800b04080008d
:10432c00c140800002002000432b2400ebf007006a
:10433c000002be0000428000114280000001be005d
:10434c000400be00d9f1070042f10700504088007c
:10435c0061408800b0408000c14080000200200015
:10436c00432b2400ddf007000002be000042800059
:10437c00114280000001be000400be00cbf107001a
:10438c00fef1070020428800314288004040800046
:10439c000000e80080017800304080000000e80058
:1043ac00000178006041800080007800504180005e
:1043bc000002eb0080fb0700404080000000e8009a
:1043cc0080017800304080000000e8000001780097
:1043dc004041800080007800304180000002eb00fa
:1043ec0075fb0700404080000000e8008001780069
:1043fc00304080000000e80000017800204180007f
:10440c0080007800104180000002eb006afb07007e
:10441c00404080000000e80000067800304080003a
:10442c000000e80080057800f04180007c0050001e
:10443c008000eb0048f107000002be0090408000b5
:10444c00a14080000001be000400be0097f10700ef
:10445c000004be00404080008000eb003ef10700ed
:10446c000001be000800be009df007000200200005
:10447c0003f823009af00700f8f007000005780015
:10448c00f04180007c0050008000eb0032f107000e
:10449c000002be0060428000714280000001be003c
:1044ac000400be0081f107000004be003040800013
:1044bc008000eb0028f107000001be000800be00e0
:1044cc0087f007000200200003f8230084f00700a7
:1044dc00e2f00700000078000082eb008c0178000d
:1044ec000b0178008a00780033fb07004040800005
:1044fc000000e80000067800304080000000e80072
:10450c0080057800f0418000710050008000eb00c5
:10451c0011f107000002be00704080008140800055
:10452c000001be000400be0060f107000004be00e4
:10453c00404080008000eb0007f107000001be0046
:10454c000800be0066f007000200200003f82300fc
:10455c0063f00700c1f0070000057800f04180000f
:10456c00710050008000eb00fbf007000002be0061
:10457c0040428000514280000001be000400be0099
:10458c004af107000004be00304080008000eb00c0
:10459c00f1f007000001be000800be0050f007005b
:1045ac000200200003f823004df00700abf00700d9
:1045bc00000078000082eb008c0178000b01780081
:1045cc008a007800fcfa0700404080000000e800f8
:1045dc0000067800304080000000e800800578007c
:1045ec00f04180006e0050008000eb00daf0070014
:1045fc000002be0020428000314280000001be005b
:10460c000400be0029f107000004be0040408000f9
:10461c008000eb00d0f007000001be000800be00d7
:10462c002ff007000200200003f823002cf00700f5
:10463c008af0070000057800f04180006e00500001
:10464c008000eb00c4f007000002be005040800068
:10465c00614080000001be000400be0013f10700a1
:10466c000004be00304080008000eb00baf0070070
:10467c000001be000800be0019f007000200200077
:10468c0003f8230016f0070074f007000000780010
:10469c0004802f008c0178000b0178008a007800d0
:1046ac00c5fa0700404080008000e80030408000e0
:1046bc000000e80003802f003200200054fc0700ab
:1046cc00f04180006e0050008000eb00a2f007006b
:1046dc000002be0050408000614080000001be001e
:1046ec000400be00f1f007000004be003040800062
:1046fc008000eb0098f007000001be000800be002f
:10470c00f7ef07000200200003f82300f4ef070086
:10471c0073f007000000780010418800f041800021
:10472c006e0050008000eb008bf007000002be0012
:10473c0020428000314280000001be000400be0017
:10474c00daf007000004be00404080008000eb005f
:10475c0081f007000001be000800be00e0ef07007a
:10476c000200200003f82300ddef07005cf00700d7
:10477c000000780020418800f0418000710050005a
:10478c008000eb0074f007000002be004042800085
:10479c00514280000001be000400be00c3f00700bf
:1047ac000004be00304080008000eb006af007007f
:1047bc000001be000800be00c9ef07000200200087
:1047cc0003f82300c6ef070045f00700000078004f
:1047dc0030418800f0418000710050008000eb00f7
:1047ec005df007000002be00704080008140800038
:1047fc000001be000400be00acf007000004be00c7
:10480c00404080008000eb0053f007000001be0028
:10481c000800be00b2ef07000200200003f82300de
:10482c00afef07002ef00700000078004041880031
:10483c00f04180007c0050008000eb0046f0070047
:10484c000002be0060428000714280000001be0088
:10485c000400be0095f007000004be00304080004c
:10486c008000eb003cf007000001be000800be0019
:10487c009bef07000200200003f8230098ef0700cd
:10488c0017f007000000780050418800f0418000cc
:10489c007c0050008000eb002ff007000002be00ef
:1048ac0090408000a14080000001be000400be00ca
:1048bc007ef007000004be00404080008000eb004a
:1048cc0025f007000001be000800be0084ef0700c1
:1048dc000200200003f8230081ef070000f007001e
:1048ec0000007800604188004f0678004f05be003c
:1048fc004f04be000080fa00000006000400fa001d
:10490c000000eb00000f7800202222001007980016
:10491c007d0407003d68ef0029f8070078fc0700cc
:10492c0000a02500212620005c040700fbff3700b7
:10493c000000fa0000012000b01f88008000200059
:10494c00c01f8800fc23ef000424ef000824ef00b4
:10495c000a24ef000c24ef000e24ef0010122800a4
:10496c00a01f88000080fa00000006000400fa0076
:10497c00000f78001107980000000000e01f800075
:10498c00620060000000e000fcff3a001e007800ae
:10499c00100078000020880000000000e11f80005b
:1049ac0000022000008060000000e000fbff3a00e5
:1049bc00012080001e009000010878000080fa00a1
:1049cc00000006001800fa00100f9800210f980044
:1049dc00320f98000000eb00000f78000000eb0095
:1049ec00100798000000eb00700798000000eb0027
:1049fc00000f980010002000600798001e0890001f
:104a0c000000e00005003a000000eb0050079800a1
:104a1c00700047002007980004003700ee0090005b
:104a2c00510798009e089000210798003e089000be
:104a3c000000e00005003a000000eb004007980081
:104a4c006e0047003007980005003700ee0090001c
:104a5c0041079800be089000310798000000000044
:104a6c00e01f8000620060000000e000fcff3a00e4
:104a7c001d003700e01f8000620060000000e000b5
:104a8c0009003a002e009000104078000080fb00d6
:104a9c0000208800ae0090005e0090000080400076
:104aac00200798001e0fe800e11f80000002200084
:104abc00008060000000e0000b003a000020800045
:104acc00804078003e00900001487800be009000c5
:104adc004e00900000804000300798001e009000af
:104aec000000e800100798002e0890009e00780047
:104afc00808f5000dfff390010003700e11f80006d
:104b0c0000022000008060000000e0000b003a0072
:104b1c0000208000804078003e0090000148780022
:104b2c00be0090004e0090000080400030079800be
:104b3c001e0090000000e800100798009e009000f6
:104b4c002e089000808f5000ecff39001e0078007a
:104b5c000080fa00000006000800fa0030079800f8
:104b6c003e0090008000d10000f82700008060001b
:104b7c00100798001e00900000f0a000100798008d
:104b8c003e0090004700dd0000f0a00020079800d8
:104b9c000e80e8008e00780074ff07006400470068
:104bac008e00780071ff07001e0078000080fa006c
:104bbc00000006000400fa00100798001e00900088
:104bcc004700dd0000f0a000100798000e80e80000
:104bdc008e00780065ff07001e0078000080fa0048
:104bec00000006000400fa00100798001e00900058
:104bfc004700dd00100798000e80e8008e0078005a
:104c0c005aff07001e0078000080fa000000060022
:104c1c000400fa00100798001e0090004800dd0008
:104c2c00100798000e80e8008e0078004fff0700f8
:104c3c001e0078000080fa00000006000600fa0052
:104c4c00000f780011079800220798002e019000a1
:104c5c009e0090001e0078005aff07000080fa00aa
:104c6c00000006000000fa00a11f80000080200058
:104c7c00008060000000e0000200320020002000f4
:104c8c0008003700a11f8000004020000080600059
:104c9c000000e0000200320010002000010037008c
:104cac000000eb000080fa00000006000000fa0093
:104cbc00e01f80000080fa00000006000000fa00ef
:104ccc004422ef00d009200030128800400120005f
:104cdc0040128800a0002000501288002012800092
:104cec0000407800674060000080fb009042880024
:104cfc000080fa00000006000000fa005104800059
:104d0c0000202000008060000000e0000100320064
:104d1c008b20a9000080fa00000006000000fa00b9
:104d2c009042800000407800674060000080fb00eb
:104d3c00670060002212800081ff2f00810061005b
:104d4c0001007000201288000080fa0000000600ac
:104d5c000000fa002112800080ff2f00008060000c
:104d6c00201288000080fa00000006000200fa0001
:104d7c00000f78009e007800511288000080fa0025
:104d8c00000006000400fa00000f780011079800dc
:104d9c009e007800511288009e00900041128800fd
:104dac000080fa00000006000400fa00000f7800f2
:104dbc00110798009e007800511288009e00900008
:104dcc00411288000080fa00000006000400fa007e
:104ddc00000f7800110798009e007800511288008f
:104dec009e009000411288000080fa00000006002e
:104dfc000200fa00000f78009e0078004112880033
:104e0c000080fa00000006000200fa00000f780093
:104e1c009e007800511288000080fa000000060005
:104e2c000000fa00500480004900de006140600080
:104e3c000080fb0000f0a7000000ea000000ea0080
:104e4c004f00de00004078000080fa0000000600f1
:104e5c000400fa00100798001e009000e10f5000ab
:104e6c000f003200e10f500003003900e20f500038
:104e7c00150032001e003700201280004400de00b6
:104e8c00614060000080fb0000f0a7000000ea0019
:104e9c000000ea004f00de00004f780014003700dd
:104eac00201280004500de00614060000080fb00a5
:104ebc0000f0a7000000ea000000ea004f00de004e
:104ecc00004f78000a003700201280004600de00f8
:104edc00614060000080fb0000f0a7000000ea00c9
:104eec000000ea004f00de00004f780000000000d8
:104efc001e4078000080fa00000006000200fa0054
:104f0c00000f78001e007800e10f500007003200ff
:104f1c00e10f500003003900e20f50000500320091
:104f2c00060037004482a9000400370044a2a900ff
:104f3c000200370044c2a900000000000080fa0003
:104f4c00000006000000fa0046c2a8000080fa002b
:104f5c00000006000000fa00301280004600de005f
:104f6c00614060000080fb0000f0a7000000ea0038
:104f7c000000ea004f00de00004078000080fa00dc
:104f8c00000006000000fa0046c2a9000080fa00ea
:104f9c00000006000000fa001224ef001424ef00b9
:104fac001824ef002024ef002424ef002624ef0027
:104fbc002824ef002a24ef0010022800802088000b
:104fcc000080fa00000006000400fa00000f7800d0
:104fdc001107980000000000c020800062006000f3
:104fec000000e000fcff3a001e0078001040780042
:104ffc000080fb00e020880000000000c120800041
:10500c0000022000008060000000e000fbff3a007e
:10501c00e0208000804078001e009000014878005d
:10502c000080fa00000006001800fa00100f98002b
:10503c00210f9800320f98000000eb00000f780051
:10504c000000eb00100798000000eb0070079800c0
:10505c000000eb00000f9800100020006007980083
:10506c001e0890000000e00005003a000000eb0074
:10507c005007980070004700200798000400370084
:10508c00ee009000510798009e08900021079800b0
:10509c003e0890000000e00005003a000000eb0024
:1050ac00400798006e004700300798000500370055
:1050bc00ee00900041079800be0890003107980060
:1050cc0000000000c0208000620060000000e000d2
:1050dc00fcff3a001d003700c02080006200600019
:1050ec000000e00009003a002e009000104078000b
:1050fc000080fb00e0208800ae0090005e00900075
:10510c0000804000200798001e0fe800c12080009e
:10511c0000022000008060000000e0000b003a005c
:10512c00e0208000804078003e009000014878002c
:10513c00be0090004e0090000080400030079800a8
:10514c001e0090000000e800100798002e08900048
:10515c009e007800808f5000dfff39001000370070
:10516c00c120800000022000008060000000e000f0
:10517c000b003a00e0208000804078003e00900058
:10518c0001487800be0090004e0090000080400066
:10519c00300798001e0090000000e80010079800ef
:1051ac009e0090002e089000808f5000ecff39007c
:1051bc001e0078000080fa00000006000400fa00cf
:1051cc00204798000e80e8008e0078007eff0700d4
:1051dc001e4078000080fa00000006000600fa006d
:1051ec00000f780011079800220798002e019000fc
:1051fc009e0090001e0078008bff07000080fa00d4
:10520c00000006000000fa008120800000802000d1
:10521c00008060000000e00002003200200020004e
:10522c0008003700812080000040200000806000d2
:10523c000000e000020032001000200001003700e6
:10524c000000eb000080fa00000006000000fa00ed
:10525c00c02080000080fa00000006000000fa0068
:10526c0010002000303388007a26ef008e26ef00e5
:10527c001002210010358800b626ef000002200035
:10528c0050368800de26ef00e0672c0010338800d3
:10529c00f0fd2f00b0338800e0012f00503488005f
:1052ac00a0642c00f0348800102020009035880079
:1052bc00c019220030368800c0282f00d036880054
:1052cc007426ef008826ef009c26ef00b026ef0036
:1052dc00c426ef00d826ef000008200060378800b5
:1052ec007226ef008626ef009a26ef00ae26ef001e
:1052fc00c226ef00d626ef000008200050378800a9
:10530c006826ef007c26ef009026ef00a426ef0025
:10531c00b826ef00cc26ef00e026ef00006c200052
:10532c0050338800f0f32f00f03388000001260082
:10533c0090348800000820003035880000212000bf
:10534c00d035880000342000103788000108800018
:10535c00f00b20000081600060042000710520002b
:10536c000310200080497800814978008249780038
:10537c00f13e8000f00f28008080600000f02000db
:10538c0001007000f03e8800213f8000f00f2800e3
:10539c00808060000030200001007000203f8800f9
:1053ac00e13d800000fc2f0000806000a001b300f4
:1053bc00e03d8800a13d800000fc2f0000806000d3
:1053cc00a000b300a03d8800313f8000f00f280002
:1053dc008080600000a0200001007000303f880039
:1053ec00313f800000f82f00008060000030a000ea
:1053fc00303f8800513f8000f00f28008080600013
:10540c000090200001007000503f8800413f800058
:10541c00f00f28008080600000b0200001007000b8
:10542c00403f8800b13e800000f82f0000806000f3
:10543c007000b300b03e88000008800000017800c6
:10544c000260a00060042000710520000310200001
:10545c00804978008149780082497800aac6a80062
:10546c00aae6a800a8c6a900a8e6a9005fe6a800bd
:0c547c009a60a8000080fa000000060002
:020000040000fa
:10548800de08000020000000800000005008000036
:105498000200000082000000ffff00001c0900005d
:1054a8000200000080000000520800000200000016
:1054b800800000001e0900000200000080000000bb
:1054c800000800003e000000800000003e080000c8
:1054d80012000000820000003f003500fa8e3c00f8
:1054e800000080003f000000803f00000080bf00f7
:1054f8005408000002000000800000005608000068
:10550800880000008200000001000000007c080004
:105518007d087c00087c08007c087c00086c08007a
:105528000000000000000000000000000000000073
:105538000000000000000000000000000002080059
:105548000101a40008a50800a408a40008a40800f4
:10555800a4089400080000000000000000000000fb
:105568000000000000000000000000000000000033
:105578000000020008020200cc08cd0008cc080098
:10558800cc08cc0008cc0800bc08000000000000d3
:105598000000000000000000000000000000000003
:1055a800000000000000000056087e0008a6080061
:1055b80000000000000000000000000000000000e3
:1055c80020090000020000008000000022090000fd
:1055d800020000008200000004000000180900001a
:1055e8000400000080000000fe0800001a0000000f
:1055f80082000000686a6c00747a4c0000000100a8
:105608000002000004000800001000000000200054
:105618002b2d2300300000002409000002000000a8
:1056280082000000010000002609000002000000be
:085638008000000000000000ea
:020000040000fa
