:020000040000fa
:080000000001040000000000f3
:020000040000fa
:0400080010020000e2
:020000040000fa
:04000c0028020000c6
:020000040000fa
:0400100038020000b2
:020000040000fa
:0400140018020000ce
:020000040000fa
:0400180030020000b2
:020000040000fa
:04001c006e02000070
:020000040000fa
:040020006e0200006c
:020000040000fa
:040024006e02000068
:020000040000fa
:040028006e02000064
:020000040000fa
:04002c006e02000060
:020000040000fa
:040030006e0200005c
:020000040000fa
:04003400480200007e
:020000040000fa
:040038006e02000054
:020000040000fa
:04003c006e02000050
:020000040000fa
:040040006e0200004c
:020000040000fa
:040044006e02000048
:020000040000fa
:040048006e02000044
:020000040000fa
:04004c006e02000040
:020000040000fa
:040050006e0200003c
:020000040000fa
:040054006e02000038
:020000040000fa
:040058006e02000034
:020000040000fa
:04005c006e02000030
:020000040000fa
:040060006e0200002c
:020000040000fa
:040064006e02000028
:020000040000fa
:040068006e02000024
:020000040000fa
:04006c006e02000020
:020000040000fa
:040070006e0200001c
:020000040000fa
:040074004002000046
:020000040000fa
:040078006e02000014
:020000040000fa
:04007c006e02000010
:020000040000fa
:040080006e0200000c
:020000040000fa
:040084006e02000008
:020000040000fa
:040088006e02000004
:020000040000fa
:04008c006e02000000
:020000040000fa
:040090006e020000fc
:020000040000fa
:040094006e020000f8
:020000040000fa
:040098006e020000f4
:020000040000fa
:04009c006e020000f0
:020000040000fa
:0400a0006e020000ec
:020000040000fa
:0400a4006e020000e8
:020000040000fa
:0400a8006e020000e4
:020000040000fa
:0400ac006e020000e0
:020000040000fa
:0400b0006e020000dc
:020000040000fa
:0400b4006e020000d8
:020000040000fa
:0400b8006e020000d4
:020000040000fa
:0400bc006e020000d0
:020000040000fa
:0400c0006e020000cc
:020000040000fa
:0400c4006e020000c8
:020000040000fa
:0400c8006e020000c4
:020000040000fa
:0400cc006e020000c0
:020000040000fa
:0400d0006e020000bc
:020000040000fa
:0400d4006e020000b8
:020000040000fa
:0400d8006e020000b4
:020000040000fa
:0400dc006e020000b0
:020000040000fa
:0400e0006e020000ac
:020000040000fa
:0400e4006e020000a8
:020000040000fa
:0400e8006e020000a4
:020000040000fa
:0400ec006e020000a0
:020000040000fa
:0400f0006e0200009c
:020000040000fa
:0400f4006e02000098
:020000040000fa
:0400f8006e02000094
:020000040000fa
:0400fc006e02000090
:020000040000fa
:040100006e0200008b
:020000040000fa
:040104006e02000087
:020000040000fa
:040108006e02000083
:020000040000fa
:04010c006e0200007f
:020000040000fa
:040110006e0200007b
:020000040000fa
:040114006e02000077
:020000040000fa
:040118006e02000073
:020000040000fa
:04011c006e0200006f
:020000040000fa
:040120006e0200006b
:020000040000fa
:040124006e02000067
:020000040000fa
:040128006e02000063
:020000040000fa
:04012c006e0200005f
:020000040000fa
:040130006e0200005b
:020000040000fa
:040134006e02000057
:020000040000fa
:040138006e02000053
:020000040000fa
:04013c006e0200004f
:020000040000fa
:040140006e0200004b
:020000040000fa
:040144006e02000047
:020000040000fa
:040148006e02000043
:020000040000fa
:04014c006e0200003f
:020000040000fa
:040150006e0200003b
:020000040000fa
:040154006e02000037
:020000040000fa
:040158006e02000033
:020000040000fa
:04015c006e0200002f
:020000040000fa
:040160006e0200002b
:020000040000fa
:040164006e02000027
:020000040000fa
:040168006e02000023
:020000040000fa
:04016c006e0200001f
:020000040000fa
:040170006e0200001b
:020000040000fa
:040174006e02000017
:020000040000fa
:040178006e02000013
:020000040000fa
:04017c006e0200000f
:020000040000fa
:040180006e0200000b
:020000040000fa
:040184006e02000007
:020000040000fa
:040188006e02000003
:020000040000fa
:04018c006e020000ff
:020000040000fa
:040190006e020000fb
:020000040000fa
:040194006e020000f7
:020000040000fa
:040198006e020000f3
:020000040000fa
:04019c006e020000ef
:020000040000fa
:0401a0006e020000eb
:020000040000fa
:0401a4006e020000e7
:020000040000fa
:0401a8006e020000e3
:020000040000fa
:0401ac006e020000df
:020000040000fa
:0401b0006e020000db
:020000040000fa
:0401b4006e020000d7
:020000040000fa
:0401b8006e020000d3
:020000040000fa
:0401bc006e020000cf
:020000040000fa
:0401c0006e020000cb
:020000040000fa
:0401c4006e020000c7
:020000040000fa
:0401c8006e020000c3
:020000040000fa
:0401cc006e020000bf
:020000040000fa
:0401d0006e020000bb
:020000040000fa
:0401d4006e020000b7
:020000040000fa
:0401d8006e020000b3
:020000040000fa
:0401dc006e020000af
:020000040000fa
:0401e0006e020000ab
:020000040000fa
:0401e4006e020000a7
:020000040000fa
:0401e8006e020000a3
:020000040000fa
:0401ec006e0200009f
:020000040000fa
:0401f0006e0200009b
:020000040000fa
:0401f4006e02000097
:020000040000fa
:0401f8006e02000093
:020000040000fa
:0401fc006e0200008f
:020000040000fa
:10020000cf9220000eff27000e01880000000000a2
:10021000000020000000e000020032000001200089
:100220002002880014000700f20007000000e00030
:1002300003003a00003522000100200002003700d0
:100240000000200001002000810f7000010032003a
:1002500014000700000020000000e000020032004f
:100260000000020000000000362102000000000033
:100270000040da000000fe004440a9000008200011
:100280000000e00003003200002020009001880000
:100290004440a800000006008a1f78008b1f7800e9
:1002a00000000600a1028800800478000000eb0036
:1002b0001f003700e284440054a0b4009905ba003e
:1002c000e284440054a0b4009906ba00e2844400d9
:1002d00054a0b4000006eb00476fde00fd07b2003b
:1002e000ae018800636ce10003003a00eaff0700fa
:1002f0000000eb000e003700606ce10008003a00df
:10030000004deb000a05e800020039003420ec0043
:100310000af0a0008b05e900f9ff3e000400370059
:100320006168e100010032000086eb000b0007006d
:1003300019c7ba001905ba000e04e00003003a001c
:100340000a00e000dbff3a0000000600fe07b200f2
:10035000ae0288008a047800f5ff37000cd0a300b5
:10036000e20f4d001c00390089027800354dba00bb
:100370000a05e800020039003420ec000af0a00071
:100380008b05e9000f003200254dba000a05e80090
:10039000020039003420ec000af0a0008b05e900cf
:1003a000080032000c00e0000600320015cdba0053
:1003b0000a05e800020039003420ec000af0a00031
:1003c0008b05e9008984e80054a0b4000b00e0002c
:1003d000e2ff3a00000006009902ba00055d7800cd
:1003e0008b05e900f7ff3200c82ade00055d7800c2
:1003f0008b05e900f3ff32000c00e000f1ff320052
:1004000019ddba00eeff3700260e040000000000e0
:100410000000040000000000860f0400000000003f
:100420003600f8008020a9000000eb0091120700c0
:100430003600f800408e20008007780078004000e9
:10044000000188008040a9001000200089120700e8
:100450003600f8008060a900200020008512070007
:100460003600f8008080a9003000200081120700cb
:100470003600f8008600a900700020007d120700f9
:100480008a60ab00010032008a60a90000400600cb
:100490003600f800809fbe00829fbe00849fbe0091
:1004a000869fbe00e711070010c0b30026e8b70022
:1004b000519220009148e8008100e90080487800ce
:1004c0008860a9004f03be004f02be004f01be006e
:1004d0004f00be003600f900004006000040da0080
:1004e0000000fe000a00fa0011002000b1bf9f00ca
:1004f000c0bf9f006a805700b00807004fb8970040
:100500000080fa00000006000a00fa0051002000f6
:10051000b1bf9f00c0bf9f006a805700a9080700b5
:100520005fb897000080fa0000000600889fbe00b8
:1005300080047800504980000000e00004003a0088
:100540000e0007000084eb000000e000080035000a
:10055000584980000900e00005003200090044000d
:10056000060007000000e00001003d000084eb00f1
:10057000080078004f04be000000060080007800ec
:100580000100e00003003a0000002000504988000c
:10059000000005000080eb0002002000828f500068
:1005a00002003e00514988000000eb0000000600f8
:1005b00004102000d01c800080016200fdff32008a
:1005c000020078000000e00009003200800278009c
:1005d00004102000d21c800082016200fdff320066
:1005e000b101fb00e31c88008502e900f9ff3a0035
:1005f000000006000000050003f0a200889fbe0076
:100600008a9fbe008c1f7800d7000700de003300f1
:100610006450e1004f0032006420e10052003200db
:1006200003826c0007003b000905d0000306d000e0
:10063000820f54000c065d000200390002003200f7
:1006400089017800030678008582550004003d008a
:100650000003fd008103fd008502ea008b85420056
:10066000840f720002003b0060001000e080180060
:100670006011b8000005eb007a28e1000a0039009b
:1006800006007800c75ddd00f707b20087807500bf
:100690002d003700828171000a0178006105600039
:1006a0008180d1000080d3008502e900f9ff3b0082
:1006b000060440008784480002003b0060041400e8
:1006c000e0841c000988a300070032008a817100c1
:1006d00082817100610164008904d1000884d30023
:1006e0008b05e800170037000978a30013003a00d3
:1006f0000b00e000130034008b05e90008044400ff
:1007000089844c000a4474000978a3000d003a0063
:100710000b00e000070034008b05e90008044400ea
:1007200089844c0001003a000b0020000978a300e6
:10073000f7ff32000001eb000200370082817100f8
:100740000a0178004d0007000cf0a70001f0a0009e
:10075000960037006420e10002003a00838f6c00ad
:10076000960033000801be000200be008f00370073
:100770000002eb00ca0037000001be006500070060
:100780000470a70003f0a1006509b1001600320053
:100790000d0035006828e10006003500f0ff2f004d
:1007a000f1ff27000300e00013003b0001002800d8
:1007b0000000050000004000818048008502e9003b
:1007c000fcff3a0008003700f88f420002003c00ae
:1007d0008000eb00000005008100d1000080d30004
:1007e0008502e800fcff3a000300e00002003b0045
:1007f00060001000e0801800000006000001be004c
:10080000440007000470a70003f0a10003f8a30050
:1008100013003a006509b1001000320009003500ec
:100820006928e100020035000100280000000500f1
:1008300000004000818048008502e900fcff3a008a
:1008400000000600f88f4200050035008100d1004d
:100850000080d3008502e800fcff3a00000006009b
:100860008000eb00000005004f89de008201780067
:10087000410237006011b8005202370081002000a9
:10088000618055000b003d000b00200061fe2f0031
:100890000100e1001d0034008281710061016400eb
:1008a0008904d1000884d3000000e800faff3a0070
:1008b000710020006100640003007000020060000d
:1008c0000900320061044400e0844c000988a5005e
:1008d000050032008b05e8006808e10002003a00dc
:1008e0008904d1000884d300f20f20000258e100ef
:1008f00005003d00c75ddd00f907b2008980750085
:1009000008007800000006000bf827008b00780034
:1009100000000500c70ade00f107b200f50fb200c3
:1009200008003200e1cf4200020032000170a00056
:1009300024000500810f700001003200040805004a
:1009400044000500810f700002003a001400050009
:100950008502e9000000400081c04800fcff3b0028
:100960000170a000240005000004be00e9ff07009c
:100970000003be000405be000200be00e5ff070044
:10098000844f7500000006000200be006450e100c4
:10099000050036006420e100020036000968a3006b
:1009a00001003a000800be000160a0004f06780078
:1009b0004f05be004f04be0000000600f0ff2f00f0
:1009c000f1ff2700f9ff3700889fbe008a9fbe0015
:1009d0008c1f7800e4ff0700ebff330003866c00f8
:1009e0006450e100240032006420e100270032005e
:1009f0006150e100220032006120e100210032005c
:100a00008b854200eb07b1000134b800003ab80012
:100a10000804420089844a00013ab8000030b80056
:100a20008880400009014a000400330000004000b3
:100a300081804800020149008b05e900c909dd00f9
:100a4000830170000100320013002000c814de0092
:100a50004814dd004709de001200b200c808de00bd
:100a60000884700085ff070001f0a1000cf0a700ca
:100a700001f0a000cdff37006120e100cfff320080
:100a80000801be000200be00f7ff37006150e10020
:100a9000fcff3a00c9ff37001400200000003700b7
:100aa0000800fa00889fbe008a9fbe008c9fbe008f
:100ab000040678000004be000205be0057010700ce
:100ac0006420e1009f003e009b0032006120e100b5
:100ad0009600320003f0a100171b240036582c00aa
:100ae00005a02100040020001b0107000800be0033
:100af0000a01be000700350097012400b61f22003e
:100b00004544250084d12200dd0107000004be0019
:100b10000205be008006eb000c00a700cf1ede0021
:100b200003f0a1000bf0a10047fd230006f3250010
:100b300095dc260034882c00d50107006022b8001f
:100b40000003eb0007fe23000c00a60007ff2300b4
:100b5000830007005c0107000000a7000d00a20051
:100b6000950107000c00e00004003a0007fe230096
:100b7000060020006022b8007600070003f0a20003
:100b8000009fbe000297be009700240006002200ce
:100b90006022b800be0107000802be000a03be00c2
:100ba0006f000700809fbe00829fbe003e00be0017
:100bb0002e01be00f7f4230046542b00152d24000f
:100bc000a4462800b20107004f03be004f02be003a
:100bd000630007000004be000205be0003f0a10090
:100be00067e42300e6092a00f5672600d4bc230049
:100bf000d90007000800be000a01be004800350009
:100c00000002be000203be00a1010700009fbe005b
:100c10000297be0087ce2300f60f280035992600e4
:100c200054f92d009a010700a7d62b0006422e008a
:100c300085c02d00c4992400490007003e02be0073
:100c40002e03be009201070067de2300c6232100a9
:100c5000a586260004432d00410007003e02be0089
:100c60002e03be008a010700a7e52b0056642e0064
:100c7000d5b52400b40a2c00390007003e02be009e
:100c80002e03be008201070077ec230036de210030
:100c900045522a0034062f00310007003e02be00f4
:100ca0002e03be007a010700a7f22b00061a2000cf
:100cb00015a02100a4e12300290007003e02be0088
:100cc0002e03be007201070017f823001611210041
:100cd00015112100040b2100210007003e02be0077
:100ce0002e03be006a01070057fc2b005655250055
:100cf0005555250054552500190007003e02be0039
:100d00002e03be00620107000802be000a03be00f7
:100d10005f0107000802be000a03be0010000700c2
:100d20000d00a70003f0a200e20037000c00a600af
:100d300003ff2300df003700f3ff2700f2ff2f003f
:100d40006110b9000330a00014022000d4428800d2
:100d5000d800370007f0a2000100370000000000b3
:100d60002800fa00889fbe008a9fbe008c9fbe00ac
:100d700007067800878669000c003b0003047800b2
:100d80008704780008f0a10009f0a100840f50004a
:100d9000858f5800860f5900890f5c0003003300cf
:100da0000cf0a20001003a000cf0a100ad00070019
:100db0006400e1005f003200780147006408e10050
:100dc000610032006c014700748557003200be009c
:100dd0001201be003a04be001a05be001e039000b8
:100de000be0a90008503530006003d000004fd008c
:100df0008104fd000205fd008305fd008703ea0074
:100e0000050378000df8a30004003200600414000c
:100e1000e0841c0060051d00e0851d006022b80014
:100e20007d0320000d38e1008006eb000b00390047
:100e30004433dd00f300b200830173003900370052
:100e4000848272000d027800e10664008b85d10077
:100e50000a85d3008984d3000884d3008703e9007e
:100e6000f7ff3b0008004000898048000a01490064
:100e70008b81490004003b0060001000e0801800f6
:100e800060011900e08119000358a3000900320035
:100e90008d82720084827200610260008301d10041
:100ea0000281d3008180d3000080d3000603e800d4
:100eb0001b0037000348a30017003a000600e000bb
:100ec000170034000603e9000d00a30000004800ed
:100ed0008180480002014900838149000348a30042
:100ee0000f003a000600e000090034000603e900a4
:100ef00000004000818048000201490083814900d0
:100f000001003a000003eb000348a300f5ff3200a4
:100f10006022b8000200370084827200618266009d
:100f20001200070003f0a1000cf0a70003f0a000de
:100f300060003700640147006408e10002003a00e5
:100f40000df8a30058003a003200be001201be00a6
:100f500058003700000000008f1fd1004201070039
:100f60008f87e9000000e000000006001800200064
:100f700057002000080453000d003d00060020002b
:100f800097fc2f000740e1001e00340084827200ad
:100f9000610260008301d1000281d3008180d3000f
:100fa0000080d3000804e800f8ff3a004700200062
:100fb0006104600005047400040464000d00320044
:100fc00061004000e080480060014900e081490084
:100fd00003b8a500070032000603e8006538e10009
:100fe00004003a008301d1000281d3008180d30044
:100ff0000080d300f87f20000830e10003003500b6
:10100000080378006000b8006011b8004433dd00c8
:10101000f300b200830173000000060005ff270003
:1010200005826100070032000428e100010032005f
:10103000240005000600070001003a0044000500f6
:101040000408050002000700f9ff3a00140005003b
:101050006f8261008102700085027100850272005a
:1010600000000600680447000294be000094be0021
:10107000fc0447008694be008494be0009007800fa
:10108000990107000800780097010700990078008f
:10109000814f70000b003b000800be008401070078
:1010a0004f00b10003003700f3ff2700f2ff2f00cd
:1010b0006110b9004f06be004f05be004f04be00d0
:1010c0000080fa00000006001400fa00889fbe00ad
:1010d0008a9fbe008c9fbe000004be000205be00b9
:1010e000680047000a90be000890be007e0107001d
:1010f0000070a7000bf0a100304320009e0290007a
:1011000080825200b0fe2f000028e10011003d0057
:10111000b0fc2f000028e100150034001e099000eb
:101120008e0890007e0090000501b0000201d10001
:101130008180d3000080d3008502e800fbff3a00e5
:101140000b00e000dbff3b0060001000e0801800b7
:10115000d8ff3700f0ff2f00f1ff27000b00e00061
:10116000d4ff3b000100280000002000d1ff370021
:101170006000b800cfff3700881f780003047800b4
:101180000300e00007003d0060001000e080180050
:1011900060011900e081190002003b0001f02d0000
:1011a000030037000700070008f0a70001f0a000c7
:1011b0004f047800000006004f89de0082017800ad
:1011c00070013700889fbe008a9fbe0000827000b9
:1011d0000402710004827100260032000004be0087
:1011e0000200be006011b8006b09200095022000cb
:1011f0000182cf000a0039000541b1000082cf0012
:10120000070039000541b1000982cf000400390010
:101210000541b1000882cf00010039000541b1004d
:1012200005425200120032000a003b008281710028
:10123000610164008100d1000080d3008984d30063
:101240000884d3008b05e8000442e800f7ff3a0069
:10125000070037000804440089844c00000048005f
:10126000818048008b05e9000442e900f9ff3a005b
:1012700082fd07004f05be004f04be0000000600bf
:10128000801feb00a20007008f87e9000000060026
:101290002800fa00889fbe008a9fbe008c9fbe0077
:1012a00003866b006fff07000028a30064003a006c
:1012b0000128a30067003a000008a30062003a007a
:1012c0000108a30065003a001e009000be089000cf
:1012d00081064000ed3fb100f4805700ee01900020
:1012e000111ab8008e099000311bb8009e099000b9
:1012f000311cb800511db800f485570046000700a6
:10130000fe0190003a0007008b85e8003e000700d0
:101310008e09900040000700ee01900034000700a5
:101320008b85e800380007008e0990004000070018
:101330009e0990001b18b800890440000a854800e7
:10134000fe019000340007008b85e800380007009c
:10135000ee019000300007008e0990001b18b800c5
:10136000890440000a8548000a98a30008003a0052
:101370000402420085824a0006034b0087834b002b
:1013800008044c0089844c000a054d008d06e900d4
:1013900084827200850273004c3add00850272007f
:1013a0000100320015002000443ade001400b200b3
:1013b0004538de00cb45dd000b007000c540de0087
:1013c000cb4ddd008b8070004549de00cb55dd0044
:1013d0000b017100c551de000d037800e3fe07002c
:1013e00003f0a1000cf0a70003f0a00031ff3700cc
:1013f0001b18b8008502400006834800e0834b00bc
:1014000060044c00070037001b18b80006034000ba
:1014100087834800faff37001b18b8008703400095
:1014200008844800e0844c0060054d000000060080
:101430001b18b8000804400089844800faff3700f0
:101440000108a30018ff3a005800be005801be0072
:10145000e3ff37000008a30013ff3a0009047800f7
:10146000f9ff370000000000889fbe008a9fbe0081
:101470008c9fbe000404be000605be00809fbe0017
:10148000829fbe00e5fe0700040678000800be004b
:101490000a01be00e1fe0700840678004f03be008b
:1014a0004f02be008d4f76007fb0970013003300cf
:1014b000f0ff2f008b8f6b0006003b000d066600cf
:1014c0000c00a7000a00370007f0a600100020005b
:1014d0000a003700880f5200898f5a008a0f5b007c
:1014e0008b8f5b00030039001000200001003e00dc
:1014f0000000200007f0a7000000ea004f06be0031
:101500004f05be004f04be000000060000000000b2
:101510002800fa00889fbe008a9fbe008c9fbe00f4
:101520000efe9700cffe07006108e1005c0032006c
:101530006200e1005a003e00540039006408e100f6
:10154000520032006c014700748557003200be0023
:101550001201be003a04be001a05be009e029000b1
:10156000be0e90000d82520017003b000402e800fe
:1015700046003a00880f5000898f58008a0f5900a2
:101580008b8f590041003400640147007803470005
:101590003200be001201be003602be001603be00bd
:1015a00007f0a10003f0a60007f0a0000c70a70050
:1015b000ebfd0700bffe37000000400081804800bf
:1015c00002014900838149000c00a000080050007e
:1015d000898058000a0159008b81590005003b00a1
:1015e00008004000898048000a0149008b814900b9
:1015f0000c00a1000402e900efff3b0000024000e4
:101600008182480002034900838349001b003200a5
:101610000802520089825a000a035b008b835b0038
:101620004200f800050037000000400081804800bb
:1016300002014900838149008d06e9000340a600ac
:10164000f9ff37006022b8000d03780047fe07005d
:10165000780347004200f9000800350002003c0012
:101660000c08a300050032003602be001603be00bf
:1016700007f0a0000c70a700b9fd07005e02900003
:1016800004f0a70003f0a2008afe37002e009000ad
:10169000be0090004e019000de01900085fe3700f4
:1016a000100220000c70a600d04288007efe370099
:1016b000e48240001078a30007003200640240007a
:1016c0001178a3003400be001401be0004003200f3
:1016d0000330a700000006003500be001501be0063
:1016e0000330a00000000600800078005002be0019
:1016f0005003be004439de00f700b200f37f200043
:1017000003016100090032000218e10016003a00ee
:10171000850172008301730083817300000820003b
:1017200015003a00400020001300370085017200c8
:10173000830173008381730005003a0004a8be0092
:1017400006a8be00100020000b0037000201e900cf
:101750000402420085824a0006034b0087834b0047
:101760000748a300f9ff32000740a00004a8be000c
:1017700006a8be002000200080009800920098007b
:1017800000000600881f7800030478000300e000d2
:1017900007003d0060001000e080180060011900a3
:1017a000e081190002003b0001f02d00030037002a
:1017b0000400070008f0a70003f0a0004f04780021
:1017c00000000600889fbe000082700004027100c5
:1017d000048271002400320036432000c50020003e
:1017e0008383cf000a0039000541b1008283cf0016
:1017f000070039000541b1008183cf0004003900a2
:101800000541b1008083cf00010039000541b100de
:1018100085c353006022b800120032000a003b006a
:1018200084827200610260008301d1000281d300d2
:101830008180d3000080d3000603e8008743e800de
:10184000f7ff3a00070037000000400081804800a1
:1018500002014900838149000603e9008743e9004a
:10186000f9ff3a00c1fd07004f04be00000006006a
:101870004188200000003700889fbe008a1f780042
:101880000004be00c900900069009000808f5000e5
:101890000500390009007800580007008080eb003f
:1018a0000000e0001600350008457800490090006f
:1018b00008587800c00498001900780000b8a30008
:1018c00004003a0000a8a30007003200ea4f5400c9
:1018d00005003a00090078000d0007008080eb0049
:1018e0000000e00006003a0000c02000190060007f
:1018f0000200320049009000e00498008a80fb005a
:10190000010078004f0578004f04be00000006007b
:10191000889fbe008a1f7800000478000800e0005d
:101920000d003a00288d2000700544008004eb0073
:10193000580078000000e00004003200f4ff0700c7
:101940000000e00001003d008084eb008a0f54009d
:10195000f7ff3a0025003700000022001800600061
:101960008004eb0021003200a80490000f00370033
:1019700009015100384090000000fb008900780008
:101980000bfb07000000e00007003c00280090006f
:101990004004980060049800500c98001890a00033
:1019a0008084eb00110037008084440048019000df
:1019b000828f5400eeff3900280090004004980008
:1019c0009800780002c020000281600001003a0007
:1019d0003800900001e8a300020032006004980083
:1019e00001003700500c98008004eb0009007800db
:1019f0004f0578004f04be0000000600889fbe001f
:101a00008a1f780000047800c800900068019000e8
:101a10000000eb00828f50003c0039001800780075
:101a20002200290002016000e20f5100070032008d
:101a3000012024000000e00001003d000120200002
:101a4000008c70000080eb003000370002002600a0
:101a500002006000820f500009003a003800900038
:101a6000808f50000600390008007800a8ff0700aa
:101a7000800078000080eb000100e00023003a00c5
:101a80001805780000c020000000650018003a002a
:101a9000a80490006002200008004000808f5400dd
:101aa00013003a0000202000d8000700200498000e
:101ab0000000e00005003a0029049800490498005d
:101ac0008904e80039049800080037000a60a00083
:101ad0000a0c78004004980001202000808040001b
:101ae00031049800400c9800500c98000c0007003e
:101af000280090005004980038009000600498007e
:101b000000002600180c70000000eb004f05780064
:101b10004f04be000000060060e22000e500370030
:101b2000881f7800689220001804e00003003a0043
:101b3000f9ff070020c0b300004c78004f04780084
:101b400000000600889fbe000004780008007800ae
:101b50006fff070080047800000420001800600078
:101b60000200320028009000430007000000eb0054
:101b700020049800384090000004e0000500350083
:101b80000000fb0057fa07000000e00001003200ef
:101b90008084eb00181090000000e0000800320084
:101ba00059fa07000000e000010032008084eb00d9
:101bb00018109000300007000000eb00101498008f
:101bc00000082000180060000f003200218d200066
:101bd0000000eb00d10f140005003a0000004000a7
:101be000418d2000008040000008eb00030037001a
:101bf0000000e800e80f5000f6ff3a000800780007
:101c00001d0007000e003700000c780000c0eb003c
:101c10003044980060022000080040002004980032
:101c20004004980050049800400c9800600498000c
:101c3000500c98007004980076004400000c980046
:101c4000090078004f04be0000000600889fbe0017
:101c5000488e2000f0045400480078000000e000a6
:101c600001003200b7ff0700890f5400faff3a0065
:101c70004f04be00000006000000e0002f0032000c
:101c8000c0017800e38f51002c0036000308a30048
:101c90002a003a00014980000100e0000200320001
:101ca000810f5000040031001100980000498800a5
:101cb0001600370082007800110190000200e00059
:101cc00002003200800f5100faff39001102780043
:101cd00084824000850f500018003900808f520028
:101ce00003003a0083084200010078000700370033
:101cf0000200e0000300320083014000830f510026
:101d00000e0039001200980090009800900090009a
:101d10000100e0000900320010014000828f5000f5
:101d200006003a00e29120000009eb001001780063
:101d30001108410091009000110098000000060079
:101d4000889fbe0000047800f14880000100e00098
:101d500002003200010078000d00370001498000c8
:101d60000092200004003700910f54002500360037
:101d70000180e800910090000100e000faff3a00c5
:101d800010003700920f54001e0036000280e80059
:101d9000100178000200e000faff3a00110178001b
:101da000014980000092200004003700910f540088
:101db000140036000180e80091009000828f5000ee
:101dc000faff3a0049498000888f54000100310031
:101dd0008804780009007800420007000000e00055
:101de00004003a00888f5400050032008904d100b5
:101df000f5ff3700091878009fff0700d2ff370072
:101e00000000eb004f04be0000000600881f7800b1
:101e1000630440000800a1008000eb00800f540024
:101e200021003600e30f540001003e00480020006e
:101e300008007800c2ff07008000eb000000e0000f
:101e400019003200900078009101780064815100ff
:101e5000880f510003003100110190000208780042
:101e600007003700088140000208780091019000c7
:101e700013019800100178001109140088087800f7
:101e8000100178000000eb000200e00004003200c6
:101e9000920190000300e000010032000280e8009f
:101ea000f04888008180e800010078004f04780045
:101eb00000000600010020000100e00008003200e0
:101ec000010080000100e000050032008100e9000f
:101ed00001008800818040000200800000b178008d
:101ee00000000600800078000000eb000100e00028
:101ef00005003400010078008cf90700e10f400074
:101f000001003a000000eb0000000600889fbe00c0
:101f100000047800010078008204780088017800cd
:101f20000901780011002000ef000700890f500020
:101f3000010032000004eb00080078004f04be00ee
:101f4000000006000000fa00e88157004fb9970032
:101f50004188200060f82000020007000080fa009d
:101f6000000006006200fa00889fbe008a1f780009
:101f7000000578008104780002047800830078006e
:101f800080f92f000f0040000a0207009a979f0077
:101f9000a9979f000000eb00b09f9f001885fb00f1
:101fa0008a04fb000a05ea004f55de0050022000bb
:101fb000808f54000d003200e10f55000b003a00f5
:101fc0000a017800880078002f9097009f91970071
:101fd00003000100a0979f000000e0008e00320087
:101fe0003f9897000000e800b09f9f000a0444005b
:101ff00050022000808f5400040032000900e000ed
:10200000e6ff3a003f989700840037000000eb009d
:10201000909f9f00809f9f00f0979f00e0979f00f8
:10202000d0979f00c0979f00070037008191200044
:102030000100500000004000c190200061007800c5
:10204000df98970001007000d09f9f0088047800ff
:1020500009047800384578008a00fb008091200050
:10206000060107000000e000f0ff3a00a1c2b30043
:10207000814f55000e003a00cf8897000180e9009b
:10208000c08f9f0010007800c09f9f000000e000fc
:1020900005003d000000ea00c09f9f005f98970088
:1020a0000020a000d09f9f000904e8000f00370027
:1020b000c09f9f000000eb0005003700f2ff2700e3
:1020c000820f5000020032006a01b9000280400015
:1020d0000904780088047800b900fb000103b1000e
:1020e000e98f5000f5ff3600c09f9f00e0c2b300ab
:1020f000984f1000020032000080eb0019003700fa
:10210000a0c2b300d84f100007003a00cf88970054
:102110000180e900c08f9f0010007800a09f9f0001
:102120000804e800100037000000eb00a09f9f00ab
:102130008800780005003700f3ff2700830f500068
:10214000020032006a02b900040041000104780074
:10215000880078003101fb000203b100e90f510053
:10216000f5ff3600a09f9f00984478008900fb008f
:1021700040902000c10007000000e0000200320093
:102180000804e800010037008044eb00c97f9f008d
:1021900080c6b30080cf540004003a0098cf1400ea
:1021a0000a003a006640500006003700c0c6b3007f
:1021b00080cf540005003a0098cf140003003a0085
:1021c00065404000c07f9f000804e8001801fb0044
:1021d000e3fb2f008f81410081f92f008f804000a9
:1021e000a0f92f000f004000100007000000e000e1
:1021f00009003a00e1fb2f008f804000a0f92f007a
:102200000f004000af0007000000e00002003500b2
:102210000804e80061ff37000080eb004f057800fc
:102220004f04be000080fa0000000600889fbe0038
:102230008a1f78000004780030c5b300804f510039
:102240000800320030c7b300804f51000500320053
:1022500051c2b30078009000814f510017003a003e
:10226000140037001180e90080087800100578001c
:102270006a049800d80c90000900e00004003d00ba
:102280000a00780089000700800478000700370002
:10229000090178008000eb000a0078006600070062
:1022a0000000e000010032008a045000190c980080
:1022b00009003700827178000500370080814100f5
:1022c0000204e00001003a000141780082497800f0
:1022d0000000e800700498000000eb004f05780053
:1022e0004f04be0000000600889fbe008a9fbe000b
:1022f0008c9fbe008e1f78000006780001047800d5
:1023000002007800830478000881b9000207780091
:102310000200e000420032000800e000410032000c
:1023200082057800c900900069009000808f5000fd
:102330000400390009007800b0fd07000000e0004b
:102340002900350000402000190060000a0032001a
:102350000b017800a10020000c0078003600070077
:10236000800678000d00e0000600320061051600ce
:102370000a854600040037000b0578008006eb0054
:10238000010037000b05780049009000e90090003b
:10239000808050008a8f50000200310001057800d3
:1023a0008006eb000a0178008c0078002c00070002
:1023b0008a855500490090000a004000c00498003a
:1023c0000d00e000040032000900780050fd070015
:1023d0000000e00004003a000b00e00002003200c0
:1023e0000a064600cfff3700008020001900600079
:1023f000020032000900780045fd070000c02000ff
:10240000190060000200320049009000e0049800ca
:102410008b055700110009008885d800010037009e
:102420000000eb004f0778004f06be004f05be00ce
:102430004f04be000000060003003700b0cf1000bc
:10244000050032000201e900800178000200e0008e
:10245000faff3a00000005000300780000000600c3
:102460008001780002003700b15978000201e900cc
:102470000200e000fcff3a00000006000200370006
:102480000304e0000600320000017800020078003a
:10249000b041780081cf5100f9ff3a0001003700c8
:1024a0000001eb00020078000000060080007800c8
:1024b000010178003104e000fdff3a000000510006
:1024c000000006000400fa00889fbe008a9fbe003c
:1024d0008c1f78000004780001067800f80d900049
:1024e0007800900080855500080890008085550090
:1024f00018089000808555002808900080855500b8
:102500003808900080855500480890008085550067
:102510000002220090bf9f0000032300a0bf9f0085
:10252000081090000028a30015003a000b00e000fe
:10253000130034000b0578008a047800e20f550080
:102540000100360029002000c80190000901780030
:10255000ee805700580090000300010050049800de
:102560000000e0008c003200680890000900400084
:10257000600c9800090555004240a900eeff3c00a0
:10258000780190000200e0000c003400c8019000c7
:102590008c0078005800900003000100500498005f
:1025a0008080eb000000e0007c003200e808900032
:1025b0007800900000804000600c9800880c90002b
:1025c0000900e0001100340009057800e28f540092
:1025d000010036002a002000c80190000a0178009e
:1025e000ec80570058009000030001005004980050
:1025f0000000e00068003200680890000a00400017
:10260000600c98008a845400edff37001809900090
:102610000200e0000c003400c8019000e8009000c7
:102620005800900003000100500498008080eb00e7
:102630000000e00059003200e808900018089000ff
:1026400000804000600c9800a80c90000900e00099
:102650001100340009057800e28f540001003600b3
:102660002a002000c80190000a017800ec80570081
:102670005800900003000100500498000000e000a2
:1026800045003200680890000a004000600c980085
:102690008a845400edff3700380990000200e00002
:1026a0000e003400e8009000180890008080400080
:1026b000c8019000580090000300010050049800e9
:1026c0008080eb000000e00034003200e808900059
:1026d0003808900000804000600c9800c80c900002
:1026e0000900e0001100340009057800e28f540071
:1026f000010036002a002000c80190000a0178007d
:10270000ec8057005800900003000100500498002e
:102710000000e00020003200680890000a0040003d
:10272000600c98008a845400edff37000810900078
:102730008000eb000028a300180032000b00e0002e
:10274000160034008b04780009057800e28f5400ed
:10275000010036002a002000c80190000a0178001c
:10276000ee805700580090000300010050049800cc
:102770000000e00008003200680890000a004000f5
:10278000600c98008a8454004240a900eeff3c008f
:102790008000eb00010037008080eb000100780032
:1027a0004f0678004f05be004f04be000080fa00bf
:1027b00000000600010878000000060000c0da00f2
:0c27c0000000060000c0da000000060067
:020000040000fa
:1027cc000d0a0000526500006164000079200000d1
:1027dc00746f0000207200006563000065690000e2
:1027ec007665000020310000362d00006269000083
:1027fc0074200000636f00006c6f0000722c0000ee
:10280c0020310000323800007831000036300000f2
:10281c00202e0000626d0000702000006f7600001a
:10282c0065720000207800006d6f00006465000088
:10283c006d200000200a00000d0000000d7000004b
:10284c007265000073730000206100006e79000057
:10285c006b65000079200000616e000064200000b0
:10286c0074680000656e000020730000656e000047
:10287c00642e00002e2e0000202000000a0d000007
:10288c00003f0000251c00001e200000122a000042
:10289c009024000011000000000000000000000067
:1028ac0020200000202000000515000000a70000db
:1028bc003d180000252a00002b2b00003a000000d8
:020000040000fa
:1028cc000004e00002003a002768a900000006009e
:1028dc002768a80000000600889fbe008a9fbe00e3
:1028ec0000057800010478008205780083047800e4
:1028fc00a0022000d206070000c8bf00e14f500024
:10290c00090032000000eb00c30607000a00780043
:10291c00c10607000000eb00bf0607000b007800a3
:10292c00bd060700080037000000eb00ba060700e0
:10293c000a007800b80607000000eb00b606070096
:10294c000b007800b4060700b0022000bc0607009c
:10295c000048e20009003a000000eb00ae06070058
:10296c0008007800ac0607000000eb00aa06070080
:10297c0009007800a8060700080037000000eb00eb
:10298c00a506070008007800a30607000000eb006e
:10299c00a1060700090078009f060700c00220006e
:1029ac00a70607004f05be004f04be00000006003e
:1029bc00889fbe0080047800f3092000f2072000f5
:1029cc006000b800c4ff070008002500090078006b
:1029dc007f0607000804e900fcff3a004f04be0024
:1029ec00000006006340600000e8b700e14f5000b3
:1029fc000d00320005003900e24f5000110032008a
:102a0c00e34f50001c003a001500370080c0b300a3
:102a1c0027e8b70000c8b30028e8b70000cab30025
:102a2c0029e8b7001400370080c6b30027e8b700c8
:102a3c0000cab30028e8b70000c8b30029e8b70003
:102a4c000d00370080ccb30027e8b70000c8b300f6
:102a5c0028e8b70000cab30029e8b7000600370021
:102a6c0080cab30027e8b70000c8b30028e8b70055
:102a7c0000cab30029e8b700600320007006070005
:102a8c0027c8bf000080fb0063063700838220004c
:102a9c00934178008381fb0012c0b300808f5100fa
:102aac000500340029c8bf000080fb00810f5000d6
:102abc00010034000041eb000240780000000600e9
:102acc00889fbe008a9fbe000005be000204be00a7
:102adc000a00be00edff07000004e00012003a00ff
:102aec000a01e90028c8bf000080fb0082004400f6
:102afc00808f5000010035000a0450000201440090
:102b0c008b0178000a00be0073ff07000800e0008c
:102b1c0005003400090078002d0607000804e900c0
:102b2c004240a900fbff3c004f05be004f04be0015
:102b3c0000000600889fbe008a1f78008004780081
:102b4c0001047800020578008800780009007800fc
:102b5c00ceff07000004e00007003a00880178006f
:102b6c000901780088007800090078005aff0700f6
:102b7c000a007800160607004f0578004f04be00c7
:102b8c0000000600889fbe008a9fbe00800578006a
:102b9c00010578000204be008a0078000b00780062
:102bac00baff07000004e00013003a008a01e900b4
:102bbc0029c8bf000080fb0088804100808f500036
:102bcc00010035000a045000830144000b01780019
:102bdc008a0078000b0078003fff07000800e00037
:102bec000500340009007800f90507000804e90025
:102bfc004240a900fbff3c004f05be004f04be0045
:102c0c0000000600889fbe000204be000001e9001f
:102c1c0008014100810178002fff070009007800ae
:102c2c00eb0507000804e9004240a900fbff3c004b
:102c3c00c0022000020607004f04be000000060080
:102c4c00889fbe000204be008101e900888141001a
:102c5c000001780020ff070009007800dc05070060
:102c6c000804e9004240a900fbff3c004f04be00f1
:102c7c000000060010017800110878008208780026
:102c8c00000006000800fa00889fbe008a9fbe0064
:102c9c008c9fbe00e0b79f0001007800f1b79f0049
:102cac0082bf9f0093bf9f000405780083007800cb
:102cbc00810f500019003a00820278006fb2970021
:102ccc00848f5200070034000501e8000401510014
:102cdc008a017800800078000400780078ff0700f3
:102cec0099003700848f520007003d000401e80072
:102cfc00050151008a0178008000780005007800f9
:102d0c006fff0700900037000a0178008000780000
:102d1c000400780087ff07008b0037006fb2970024
:102d2c000fb99700820f52000f003a00810f50002c
:102d3c0007003d008100e800008150008a01780006
:102d4c0080007800040078008eff07007e003700ba
:102d5c000000e800010150008a01780004007800ae
:102d6c0088ff0700780037000080500000f0a700b3
:102d7c000000ea000401510002f0a7000201ea0081
:102d8c001dc0b300820f500001003c008046eb00d8
:102d9c000d04e00006003200f280570074805700ea
:102dac00b4ff0700ee80570070805700b1ff07009a
:102dbc000fb89700efb09700808f500006003400da
:102dcc00f080570074805700aaff0700ee80570070
:102ddc0072805700a7ff07008fb897006fb097005d
:102dec00808550009fb997007fb197008284510075
:102dfc0009f0a7008904ea004f5cde000b044400d4
:102e0c000884d1000086eb00828f51000100340051
:102e1c001c0020000d04e00004003a00808f5000dc
:102e2c0028003d008001780040003700808f500062
:102e3c001b003500800078000904540011003b0091
:102e4c0001015000050032000201e8008a017800ff
:102e5c007fb097007aff0700040037000a01780062
:102e6c00800078007fb0970032ff07006fb19700a9
:102e7c008200e8007fb097000c004000f0b79f0084
:102e8c000b0444006fb197000200e800e0b79f000c
:102e9c000fb99700800f5100e7ff3d00010037008c
:102eac00800078000101e800820f500026003400f9
:102ebc00010150008a0178007fb0970060ff070085
:102ecc0021003700800178000904540011003b00f8
:102edc0000815100050032000201e8008a017800ef
:102eec00ffb0970047ff0700040037000a01780085
:102efc00ffb09700030078000eff0700efb09700bb
:102f0c000100e800ffb097008c804000f1b79f00f3
:102f1c000b0444006fb197008201e800e3b79f00f7
:102f2c008fb89700838f5000e7ff3d008000e800ca
:102f3c00818f510004003400008151008a01780017
:102f4c00ffb097002fff07004f06be004f05be00d5
:102f5c004f04be000080fa0000000600ee87470018
:102f6c00889fbe008a9fbe008c9fbe008e1f78007b
:102f7c00830478008281fb00e1811100f3b79f008c
:102f8c00024678008045eb008186fb000087fb0041
:102f9c000c85fb000d00450080bf9f000b84fb00df
:102fac0088005700e1b79f00090178008000780085
:102fbc006fb09700dffe07000e004400d0b79f00f3
:102fcc00090178008fb89700dafe07008d004400e5
:102fdc0081bf9f000a005700c0b79f00090178000d
:102fec00d4fe07008e004500b1b79f0009017800a0
:102ffc008fb897003fb09700cefe070008845600ac
:10300c0009017800880078004fb09700c9fe0700ce
:10301c0009017800880078003fb09700c5fe0700d2
:10302c000a84560009017800880078006fb0970078
:10303c00c0fe070009017800880078005fb0970097
:10304c00bcfe07008b45e8007fb097000000e00055
:10305c0006003d008000e8000b80fb0000004000f3
:10306c0000804000f0b79f00090037000c46e900d3
:10307c000b80fb000000e8008c80fb00010050007e
:10308c0000004000ffb0970080804000f1b79f0027
:10309c008ccf5500beff36004f0778004f06be00a0
:1030ac004f05be004f04be00ef00b100000006004b
:1030bc004800dd00c308dd00010070004311de0094
:1030cc000000710000000600ec874700889fbe00de
:1030dc008a9fbe008c9fbe008e1f78000006780071
:1030ec00810578000204780083067800e8ef9f00e1
:1030fc00888055000d0278008b0144000c0178008b
:10310c000c007800dffe07006fe897000004e00079
:10311c003c00320061051400e0ff2f0000c4b90030
:10312c0008007800c0b79f000047eb00100020009b
:10313c00d0b79f000a00e000070035006fe8970049
:10314c000040e900e0ef9f004fb097000080e800de
:10315c00c0b79f00000545000e47e8006fe89700d8
:10316c008084fb000980550080bf9f000b804400c9
:10317c00e0b79f000e84fb000c0044000d027800a9
:10318c008fb9970000017800efb09700bdfe0700e3
:10319c00080056000d0278008fb9970000017800e6
:1031ac00efb09700b7fe07000880550080bf9f0066
:1031bc000b0444000c8044000d0278008fb997007a
:1031cc000001780088007800aefe07000900560068
:1031dc000d0278008fb99700000178008800780004
:1031ec00a8fe07006fe897008e4f500005003600d0
:1031fc005fb097000080e800d0b79f000005450045
:10320c00ccff37004f0778004f06be004f05be00bd
:10321c004f04be00cf00b1000000060000102700d4
:10322c0021002000f006070066e6a90000e8230054
:10323c0001002000ec06070066e6a80000402d0007
:10324c0001032000e8063700f4ff0700a166a9007f
:10325c00100020007a04070000202100a1072000a4
:10326c00e1060700100120007504070000c02400cf
:10327c00d1012000dc06070090022000700407003a
:10328c0000202e0041002000d7060700a0032000dc
:10329c006b040700500020005f04070000a026000c
:1032ac0081012000d00607006002200064040700a2
:1032bc00400020005804070000e823000100200013
:1032cc00c9060700200f20005d0407001000200035
:1032dc005104070000e8230001002000c20607008b
:1032ec003001200056040700600b20005404070036
:1032fc00f00f20004804070060002000460407007f
:10330c00000e20004e040700f003200042040700ca
:10331c005002200040040700c00120003e040700ba
:10332c00e00120003c040700000220003a040700e2
:10333c002001200038040700a002200036040700fa
:10334c00000920003404070040022000320407006a
:10335c0010012000300407000000eb002e040700d1
:10336c000000eb002c0407000000eb002a0407000f
:10337c000000eb00280407000000eb002604070007
:10338c00100e20002e04070000022000220407006b
:10339c000002200020040700000220001e04070089
:1033ac00000220001c040700500020001a04070033
:1033bc0050012000180407000000eb001604070061
:1033cc00700a200014040700d00320001204070028
:1033dc008001200010040700500220000e0407009a
:1033ec00a00220000c040700b00220000a04070011
:1033fc00b002200008040700a00320000604070008
:10340c00100b20000e0407008000200002040700af
:10341c00200020000004070000e823000100200029
:10342c0071060700400b2000050407007000200007
:10343c00f903070000e82300010020006a060700da
:10344c00000c2000fe030700a0002000f203070080
:10345c0020002000f003070000e8230001002000fa
:10346c0061060700100c2000f50307002000200067
:10347c00e903070000e82300010020005a060700ba
:10348c00500c2000ee03070000052000e2030700ab
:10349c0030062000e003070000e8230001002000b4
:1034ac0051060700700c2000e50307000000eb003c
:1034bc00d903070000e82300010020004a0607009a
:1034cc00a0022000de0307000000eb00d20307007f
:1034dc000000eb00d00307000000eb00ce03070058
:1034ec0000082000cc03070000e8230001002000a6
:1034fc003d060700b0022000d10307000000eb00de
:10350c00c50307000000eb00c30307000000eb003d
:10351c00c1030700000a2000bf03070000e82300d6
:10352c00010020003006070030032000c403070010
:10353c000000eb00b80307000000eb00b603070027
:10354c000000eb00b4030700000a2000b2030700e0
:10355c000000eb00b00307000000eb00ae03070017
:10356c0000e82300010020001f06070001c8bf006f
:10357c00d3fc070020c0b3001afd07009002200006
:10358c00af03070000202e004100200016060700a4
:10359c00c0022000aa03070000a026008101200021
:1035ac00110607000000eb0001fd3700889fbe00ec
:1035bc00840478008381fb008180fb000281fb0086
:1035cc000080fb000001410081814100c2fc07002a
:1035dc000004eb00090078007d0307000804e900f3
:1035ec00fcff3a004f04be0000000600889fbe009e
:1035fc008a1f78000004be0002057800a386a9008b
:10360c0060c0b300de040700a386a800a386a9004f
:10361c0020c0b300da04070009007800d8040700c2
:10362c004849dd004840de0000007100c848de005b
:10363c00d304070008407800d104070008082000d4
:10364c000a0444003a407800cd040700880f550066
:10365c00fcff3a00a386a8000010270021002000e0
:10366c00e10507004f0578004f04be00000006007e
:10367c00889fbe008a1f78000004be0002457800b7
:10368c00a386a90060c0b300bd040700a386a800f0
:10369c00a386a90020c0b300b90407000900780074
:1036ac00b70407004849dd004840de000000710007
:1036bc00c848de00b204070008407800b0040700d8
:1036cc000a407800ae04070000000000a386a800a2
:1036dc000010270021002000c30507004f057800cb
:1036ec004f04be0000000600889fbe000004be0010
:1036fc00a386a90030c0b300a1040700090078001c
:10370c009f0407004849dd004840de0000007100be
:10371c00c848de009a0407000840780098040700a7
:10372c000040eb0096040700a386a8004f04be00df
:10373c0000000600460507009021ef003f0537000a
:10374c008600fa00889fbe008a9fbe008c1f7800fe
:10375c000f0078000009b100410009000018eb00cf
:10376c000058eb0070c3b30080f79e0090f79e00ea
:10377c00a0f79e00b0f79e00c0f79e00d0f79e0009
:10378c006b405000e0f79e00f0f79e006b4050003d
:10379c0080ff9e0090ff9e00a0ff9e00d0c4b3004f
:1037ac00b0ff9e00c0ff9e00d0ff9e00e0ff9e0079
:1037bc006b404000f0ff9e0080479f0090479f00a9
:1037cc00a0479f00b0479f00c0479f00d0479f0075
:1037dc0076405000e0479f00a2cfb3006000b800d5
:1037ec00a3ff0700000000006000b800beff070048
:1037fc0000000000603e2900801f7800cef9070011
:10380c0040422900801f7800cbf907004028ef00c8
:10381c004228ef002a28ef00f01c8000f01c8000ea
:10382c00f01c8000f01c8000f01c80002668ef006b
:10383c00e48757009a03ab0005003a0038042000d7
:10384c000800780007f807009a03ab00fcff320071
:10385c00fa040700ec8457000005eb008045eb00f0
:10386c00f8f62f000f04440013050700006c7800d5
:10387c002648e200080032000a007800e80407003d
:10388c00618220008b4878002a28ec008ff096008b
:10389c00e4cf500025003200890f5400f2ff3a00ab
:1038ac00eb0407000042800011428000e00f500042
:1038bc00e08f580005003a006ff696004866dd0070
:1038cc005ff196000281fb000c0671006161b8008b
:1038dc00820f5000838f58000500390060002000d3
:1038ec00e0f7070060002000def707000f0037004c
:1038fc0032f72f000f0141003cff0700004280000f
:10390c00114280000008b0000180b0000042880025
:10391c00114288000a007800c1040700c7040700a0
:10392c0060002000cff70700cdff3700c804070068
:10393c00004280004f0678004f05be004f04be00c9
:10394c000080fa00000006000400fa00889fbe0008
:10395c008a1f78008c9fbe0079ff07002000200092
:10396c000100200060ff07000085fb0030002000f4
:10397c00010020005cff070000447800a00020003c
:10398c000100200058ff070000467800f3092000d2
:10399c00f20720006000b800cffb07004844dd00b0
:1039ac00080575006150b80090bf9f00a1bf9f0033
:1039bc00e00f5000e08f5800150032000c84fb0023
:1039cc008004eb006066b8000800be0046ff0700ec
:1039dc000085fb0061004400e0804c0042ff0700c2
:1039ec004800dd0000007500790207006206460001
:1039fc00e0864e0062044400e0844c001fb897003f
:103a0c00afb89700800f5600818f5e00eeff390033
:103a1c004f06be004f0578004f04be000080fa0030
:103a2c0000000600f0874700889fbe008a9fbe00fa
:103a3c008c9fbe008e1f7800f30120002242800074
:103a4c0001052000000420009ffd07002242800099
:103a5c00640151008001eb000105200000042000ee
:103a6c0099fd07000040eb0080f79f000007eb007a
:103a7c008ff097000180fb00a005b100cf80de0025
:103a8c0076f307003242800043428000cbf30700fc
:103a9c0000057800010678000a0078008c00780098
:103aac0030f307000004be0010408800214088005d
:103abc008a0178000c0178000300780082007800fd
:103acc00f2f307000005be005042880061428800f6
:103adc0022428000640051008e00780062f30700df
:103aec000006be00604180008e0078005ef3070087
:103afc00e0b79f00f1b79f000c01be000800be00ac
:103b0c00aef307006fb19700ffb19700b8f2070052
:103b1c0037f30700b0b79f00d04088007041800099
:103b2c008e00780050f30700c0b79f00d1b79f00fc
:103b3c000c01be000a00be00a0f307004fb19700b5
:103b4c00dfb19700aaf2070029f30700a0b79f0086
:103b5c00f0408800234280006b8051008e0078007a
:103b6c0041f307000006be000001be000800be00c5
:103b7c0092f307000001be006fb09700ffb09700f2
:103b8c009bf207001af3070000047800e840880055
:103b9c000c01be000a00be0088f307000001be0045
:103bac004fb09700dfb0970091f2070010f30700b9
:103bbc008001780003418800f4012000080178009e
:103bcc00afb097003fb097002efc07000ff09700a6
:103bdc007e40400080f79f00a5ff370001042000c5
:103bec0061418800000520007041880081418800f7
:103bfc0090418800a1418800b0418800c1418800f3
:103c0c00d041880087ff070020c0b3003ce8b70014
:103c1c0020c3b3003de8b70040c1b3003ee8b70095
:103c2c0000000600e6874700889fbe008a9fbe0002
:103c3c008c9fbe008e1f780080467800014578006e
:103c4c000240780062c0b3000440bc006110b900af
:103c5c0002f307000004be00704088008140880019
:103c6c000a40780062c0b3000440bc000205780032
:103c7c006150b900f9f207000005be00a2882800c7
:103c8c0083c823000800be004cf307000001be00ef
:103c9c000a00be0056f20700000678000107780003
:103cac000c0078008e00780090408800a1408800bd
:103cbc000d407800e2c1b3000440bc0082067800dd
:103ccc006168b900e5f207000005be0062aa2a008f
:103cdc00a3da23000c0078008e00780037f307007d
:103cec000001be000a00be0041f20700800278000d
:103cfc00010278000501780084017800b240880048
:103d0c00c34088003a4280004b42800002002000f1
:103d1c00432b2400050078008400780033f2070060
:103d2c000a01be0025f307008006780081bf9f00c2
:103d3c00010178000d0078008200780089f20700fc
:103d4c0090428800a14288008d0178000fb997003d
:103d5c0003007800820078004cf307005040880084
:103d6c006140880002002000432b24008c02780064
:103d7c000e02780005007800840078001bf2070022
:103d8c000001be000a00be000cf30700000678001c
:103d9c00010778000c0078008e00780071f20700a3
:103dac0070428800814288008c0178000e017800f6
:103dbc00030078008200780034f30700304088005c
:103dcc004140880002002000432b24000800be0064
:103ddc0006f207000001be000a00be00f7f2070061
:103dec000004780001057800080078008a0078004b
:103dfc005cf20700104088002140880088017800a0
:103e0c000a01780003007800820078001ff3070095
:103e1c005042880061428800734180008301e800b1
:103e2c00624180000201e8000002eb00d1418000f9
:103e3c00c041800093fb0700734180008301e800c0
:103e4c00624180000201e8000002eb00b1418000f9
:103e5c00a04180008bfb0700734180008301e800c8
:103e6c00624180000201e8000002eb0091418000f9
:103e7c008041800083fb07007c4180006d41800005
:103e8c00204280007c0050000007eb008e00780080
:103e9c0075f207000004be000c00e80080bf9f0014
:103eac008d00e800f1b79f00524080006340800015
:103ebc000800be00c1f207000005be000c0078002f
:103ecc008e00780068f207000001be000a00be00f8
:103edc00c7f107000200200003f82300c4f107001b
:103eec0022f207000005780092428000a342800075
:103efc000800be00b1f207000004be000d007800ff
:103f0c008e00780058f207000001be000800be00c9
:103f1c00b7f107000200200003f82300b4f10700fa
:103f2c0012f207000082eb008fb997007fb1970067
:103f3c008a00780053fb07007c4180006d418000b3
:103f4c0020428000710050008e00780046f207007d
:103f5c000004be000c01e80082bf9f000d00e800c9
:103f6c00f0b79f0032408000434080000800be0044
:103f7c0092f207000005be000c0078008e0078005d
:103f8c0039f207000001be000a00be0098f10700dc
:103f9c000200200003f8230095f10700f3f107005d
:103fac000005780072428000834280000800be0049
:103fbc0082f207000004be000d0078008e0078002d
:103fcc0029f207000001be000800be0088f10700be
:103fdc000200200003f8230085f10700e3f107003d
:103fec000082eb008fb997007fb197008a007800b0
:103ffc0024fb07007c4180006d4180002042800042
:10400c006e0050008e00780017f207000004be000e
:10401c008c00e80081bf9f000d01e800f2b79f0003
:10402c0052428000634280000800be0063f2070029
:10403c000005be000c0078008e0078000af2070024
:10404c000001be000a00be0069f10700020020005a
:10405c0003f8230066f10700c4f10700000578009f
:10406c0012408000234080000800be0053f207007d
:10407c000004be000d0078008e007800faf10700f5
:10408c000001be000800be0059f10700020020002c
:10409c0003f8230056f10700b4f1070004802f0049
:1040ac008fb997007fb197008a007800f5fa070066
:1040bc00714180008100e8002c08ec0003802f0087
:1040cc003200200000fc0700214280006e8050006e
:1040dc008e007800e4f107000004be00604180000f
:1040ec008e007800e0f107000005be001240800051
:1040fc00234080000800be0030f207000a01be0019
:10410c003bf107000200200003f8230038f1070000
:10411c00b7f1070080418800704180008e00780064
:10412c00d1f107000006be005242800063428000bd
:10413c000800be0021f207000c01be002cf10700a4
:10414c000200200003f8230029f10700a8f1070062
:10415c009041880022428000710051008e0078004e
:10416c00c1f107000004be0072428000834280004f
:10417c0012f207000001be000a00be001cf107008d
:10418c000200200003f8230019f1070098f1070042
:10419c00a041880032408000434080000800be00ef
:1041ac0006f207000001be000c00be0010f1070073
:1041bc000200200003f823000df107008cf107002a
:1041cc00b0418800214280007c8050008e00780035
:1041dc00a5f107000004be0092428000a3428000bb
:1041ec00f6f107000001be000a00be0000f1070056
:1041fc000200200003f82300fdf007007cf107000b
:10420c00c041880052408000634080000800be001e
:10421c00eaf107000001be000c00be00f4f007003c
:10422c000200200003f82300f1f0070070f10700f2
:10423c00d04188004f0778004f06be004f05be00e6
:10424c004f04be006f00b1000000060063fe0700c3
:10425c0042c1b30071c3b30020c0b30071fe37007c
:10426c00889fbe00f70207002668ef00f6fb0700e8
:10427c0008402b00494c2000b3fd07000800be008d
:10428c00d9020700fcff370000012000b01f880096
:10429c0080002000c01f8800fc23ef000424ef00e6
:1042ac000824ef000a24ef000c24ef000e24ef008a
:1042bc0010122800a01f880000000600fc23ab0091
:1042cc00feff3a0010007800002088000202200057
:1042dc00e31f800003006100fdff3a000020800016
:1042ec0080087800000006000400fa00889fbe00d9
:1042fc008001eb00c3bf9f00d3bf9f000000e00014
:10430c0003003a00668257000004eb0002003700fd
:10431c000002780018002000170020000200e000c6
:10432c0002003a00688157008003eb00fc23ab00cd
:10433c00feff3a000000eb008002eb000100e00001
:10434c001900320006022000fc23ab0004003a00e6
:10435c009481fb0003208800080242000000e80062
:10436c00e91f80008901630004003a0003208000eb
:10437c0003497800070141008502e800810f5000d5
:10438c00f1ff390008003700e61f8000860162004b
:10439c00fdff3a000320800003497800070141002b
:1043ac008502e8000100370004022000858f5000d0
:1043bc0004003600e91f800089016200f2ff3a0018
:1043cc00f4ff37004f04be000080fa000000060026
:1043dc000600fa000001d10001f8270081006100fd
:1043ec0001f0a000e1bf9f004700dd0000f0a0003d
:1043fc00f0bf9f00e680570064805700afff0700b6
:10440c00e68057000f80e900acff07005fb897000b
:10441c000080fa00000006000400fa00c700dd006e
:10442c006480570001f0a00001287800e480570058
:10443c00a2ff07006fb897000080fa00000006008a
:10444c000400fa00c700dd006480570001287800e2
:10445c00e480570099ff07006fb897000080fa00be
:10446c00000006000400fa00c800dd00648057005c
:10447c0001287800e480570090ff07006fb8970080
:10448c000080fa000000060097ff37002000200093
:10449c00f563ab0004003a00e03fb000f403b60053
:1044ac000000ea004f00de0000000600e01f800064
:1044bc000000060010002000303388007a26ef0040
:1044cc008e26ef001002210010358800b626ef0072
:1044dc000002200050368800de26ef00e0672c003a
:1044ec0010338800f0fd2f00b0338800e0012f005e
:1044fc0050348800a0642c00f03488001020200078
:10450c0090358800c019220030368800c0282f0052
:10451c00d03688007426ef008826ef009c26ef002a
:10452c00b026ef00c426ef00d826ef00ec26ef00f3
:10453c007226ef008626ef009a26ef00ae26ef00db
:10454c00c226ef00d626ef00ea26ef006826ef0021
:10455c007c26ef009026ef00a426ef00b826ef0093
:10456c00cc26ef00e026ef00006c200050338800d2
:10457c00f0f32f00f03388000001260090348800ff
:10458c00000820003035880000212000d03588003c
:10459c000034200010378800f00b20000001b6001a
:1045ac00610420007205200003102000814978006e
:1045bc008249780080497800f00f2800f33e800093
:1045cc000302600003f0200084817100f33e880038
:1045dc00243f8000840160000330b300233f880037
:1045ec0003fc2f00e53d800005826100a401b300af
:1045fc00e43d8800a43d800084816100a300b300e9
:10460c00a33d8800353f80000502600003a0200018
:10461c0084817100333f880003f82f00353f800000
:10462c00058261000430a000343f8800543f8000b4
:10463c00840260000490200005027200543f880040
:10464c00e807b60004b0200000027200443f880066
:10465c00b53e8000858161007300b300b33e8800d5
:10466c00000880000060a000031020008149780041
:10467c008249780080497800aac6a800aae6a8005a
:10468c00a8c6a900a8e6a9005fe6a8009a60a80041
:04469c000000060014
:020000040000fa
:1046a000e408000020000000800000005608000020
:1046b0000200000082000000ffff0000220900004d
:1046c0000200000080000000580800000200000006
:1046d00080000000240900000200000080000000ab
:1046e00000080000440000008000000044080000b2
:1046f00012000000820000003f003500fa8e3c00ee
:10470000000080003f000000803f00000080bf00ec
:104710005a08000002000000800000005c08000051
:1047200088000000820000000100000000820800f4
:10473000830882000882080082088200087208004c
:104740000000000000000000000000000000000069
:10475000000000000000000000000000000208004f
:104760000101aa0008ab0800aa08aa0008aa0800cc
:10477000aa089a00080000000000000000000000e5
:104780000000000000000000000000000000000029
:104790000000020008020200d208d30008d208007c
:1047a000d208d20008d20800c208000000000000b1
:1047b00000000000000000000000000000000000f9
:1047c00000000000000000005c08840008ac080045
:1047d00000000000000000000000000000000000d9
:1047e00026090000020000008000000028090000e7
:1047f0000200000082000000040000001e0900000a
:104800000400000080000000040900001a000000fd
:1048100082000000686a6c00747a4c00000001009d
:10482000000200000400080000100000000020004a
:104830002b2d2300300000002a0900000200000098
:084840008000000000000000f0
:020000040000fa
:104848001224ef001424ef001824ef0020002000a9
:10485800002188002424ef002624ef002824ef00fc
:104868002a24ef001012280080208800000006008b
:104878001824ab00feff3a001080fb00e0208800ff
:1048880002022000c320800003006100fdff3a00ff
:10489800e020800080487800000006000400fa004c
:1048a800889fbe008001eb00c3bf9f00d3bf9f005d
:1048b8000000e00003003a00668257000004eb00a5
:1048c80002003700000278001800200017002000be
:1048d8000200e00002003a00688157008003eb0004
:1048e8001824ab00feff3a000000eb008002eb004a
:1048f8000100e00019003200060220001824ab0075
:1049080004003a009481fb00e3208800080242007a
:104918000000e800c92080008901630004003a0013
:10492800e320800003497800070141008502e80080
:10493800810f5000f1ff390008003700c6208000c1
:1049480086016200fdff3a00e320800003497800f9
:10495800070141008502e800010037000402200039
:10496800858f500004003600c9208000890162004c
:10497800f2ff3a00f4ff37004f04be000080fa004f
:10498800000006000400fa00e0ff9f00e4805700e2
:104998000f80e900b6ff07004ff897000080fa0083
:1049a80000000600bdff3700200020001164ab00a6
:1049b80004003a00e03fb0001004b6000000ea002e
:1049c8004f00de0000000600c02080000000060046
:1049d8004422ef00d0092000301288004001200056
:1049e80040128800a00020005012880071002000aa
:1049f8002012800001006000c0428800000006000c
:104a08008b20ab00010032008b20a90000000600bb
:104a180058c8bf006700600081ff2f002212800085
:104a2800828060008100700021128800000006006a
:104a380080ff2f004422b6000000060050128800b4
:104a4800000006005012880041128800000006008d
:104a58005012880041128800000006005012880099
:104a6800411288000000060040128800000006007d
:104a78005012880000000600500480004600dd0047
:104a88004f00de0000000600e10f50000800320071
:104a980003003900e20f50000c003a00080037000c
:104aa80021128000cb08dd00cf08de0007003700a8
:104ab80021128000ca08dd00cf08de00030037009d
:104ac80021128000c908dd00cf08de00014078000f
:104ad80000000600e10f5000060032000300390014
:104ae800e20f500006003a00040037004482a90093
:104af8000000060044a2a9000000060044c2a90064
:104b08000000060046c2a80000000600301280001f
:104b18004900dd004f00de000000060046c2a90083
:104b2800000006009621ef0070022000e00c8800cb
:104b380020212800000d8800209220000048eb006a
:104b48000000060088e0ab0006003200309220002a
:104b58001048e80011c0b3000000e90001487800df
:104b680088e0a90000000600e00c880020922000e0
:104b78000048eb0000000600e00c80000000060082
:104b8800b00c8800209220000048eb0000000600ce
:104b9800b00c800000000600209220000048eb00c6
:104ba800a1e1a80000000600a1e1a900000006009c
:104bb80020922000104078000004e000020032003b
:104bc800219220008048eb0000000600309220006f
:104bd8001080fb0000000600309220000048eb0027
:104be800000006009021ef00a0862100900c8800ac
:104bf80000032800a00c88008860a9009860a8001d
:104c0800409220000048eb0000000600900c88004d
:104c1800409220000048eb0000000600900c800045
:104c280000000600800c8800409220000048eb003d
:104c380000000600800c800000000600000006004e
:104c4800409220000048eb009860a80095e1a80079
:104c58000000060095e1a9009860a9000000060080
:104c680040922000104078000004e000020032006a
:104c7800419220008048eb0000000600509220007e
:104c88001080fb0000000600509220000048eb0056
:104c98000000060080002000c01c880000082000da
:104ca800d01c880050112000001d8800a223ef00ae
:104cb80099e3a8009b43a8000000060026c8bf008f
:104cc800020037000004e00002003a009a03ab003b
:104cd800fcff32009a23ab00010032009a23a9009e
:104ce800f01c80000000060002202000d31c800079
:104cf80083006100fdff3a000080fb00e01c880093
:104d080000000600d01c80000000060000302300d0
:104d1800100888000621ef006821ef006a21ef00e3
:104d28006c21ef000821ef00007020005008880077
:104d38000c21ef000e21ef00a10920003200200015
:104d480080072000131020008049780081497800ee
:104d580082497800710520001200200060042000bc
:104d68000310200080497800814978008249780042
:104d78000001ab00feff3a000000060000302300ef
:104d8800100888000621ef006821ef006a21ef0073
:104d98006c21ef000821ef00007020005008880007
:104da8000c21ef000e21ef00a109200032002000a5
:104db800800720001310200080497800814978007e
:104dc800824978007105200012002000600420004c
:104dd80003102000804978008149780082497800d2
:0c4de8000001ab00feff3a0000000600d6
:020000040000fa
:104df400f03fb1000180b10006003500ee03090068
:104e040000000000403fb1000180b100fbff3d0005
:104e14001000b000203fb0000200350000800900ff
:084e2400000000000000060080
:020000040000fa
:104e2c00f0ff2800820580008200600001c0a00015
:104e3c0081058800a800b60000c0a00040058800cd
:104e4c00000006009bfd0700f5ff0700caff0700e6
:104e5c00defe07000cfd070078fe07008cff070044
:104e6c002fff07005eff3700b0428800ffff3700be
:020000040000fa
:020000040015e5
:047e0000ffff000080
:020000040000fa
:020000040015e5
:047e2000ff1f000040
:020000040000fa
:020000040015e5
:047e300088ffff00c8
:020000040000fa
:020000040015e5
:047e380071ffff00d7
:020000040000fa
:020000040015e5
:047e40009fffff00a1
:020000040000fa
:020000040015e5
:047e4800ffffff0039
:020000040000fa
:020000040015e5
:047e5000deffff0052
:020000040000fa
:020000040015e5
:047e5800ffffff0029
:020000040000fa
:020000040100f9
:04300000ffffff00cf
:00000001FF
